:020000040800F2
:1000000000A000204D4C0008314D00083D4D000877
:10001000454D00084D4D0008554D000800000000FA
:100020000000000000000000000000009D14000817
:100030005D4D000800000000D916000831170008C7
:10004000A54C0008A74C0008A94C0008AB4C0008C0
:10005000AD4C0008AF4C0008694D0008B34C0008D7
:10006000B54C0008B74C0008B94C0008BB4C000860
:10007000BD4C0008BF4C0008C14C0008C34C000830
:10008000C54C0008C74C0008C94C0008CB4C000800
:10009000CD4C0008CF4C0008D14C0008D34C0008D0
:1000A000D54C0008D74C0008D94C0008DB4C0008A0
:1000B000DD4C0008DF4C0008E14C0008E34C000870
:1000C000E54C0008E74C0008E94C0008EB4C000840
:1000D000ED4C0008B94D0008F14C0008F34C000845
:1000E000F54C0008F74C0008F94C0008FB4C0008E0
:1000F000FD4C0008FF4C0008014D0008034D0008AE
:10010000000000000000000000000000054D000895
:10011000074D0008094D00080B4D0008293F000855
:100120000F4D0008114D0008134D0008154D000833
:10013000174D0008194D00080000000000000000E5
:100140001B4D00081D4D00081F4D00080000000059
:10015000000000000000000000000000000000009F
:100160000000000000000000214D0008234D0008A1
:10017000254D000800000000000000000000000005
:1001800000000000274D000810B5054C237833B956
:10019000044B13B10448AFF300800123237010BD5A
:1001A00084000020000000002862000808B5064B0B
:1001B0001BB106480649AFF300800648036813B137
:1001C000054B03B1984708BD0000000028620008F5
:1001D000880000208400002000000000154B002B48
:1001E00008BF134B9D46A3F5803A00218B460F466E
:1001F0001348144A121A05F0AEFF0F4B002B00D023
:1002000098470E4B002B00D0984700200021040097
:100210000D000D48002802D00C48AFF3008005F017
:100220005BFF2000290004F073F905F041FF00BFD7
:100230000000080000A000200000000000000000F6
:1002400084000020CA8E0020000000000000000092
:1002500080B485B000AF78604FF00003FB604FF4CE
:100260008063C4F20103FB607B689B79002B00F084
:1002700011817B681B684FEA531303F1007303F588
:1002800002634FEA43131A467B681B684FEA531315
:1002900003F1007303F502634FEA431319687B68A7
:1002A0001B6803F01F034FF0010000FA03F36FEA2D
:1002B00003030B4013607B681B684FEA53134FEA3C
:1002C000431240F20443C4F20103D3181A467B6878
:1002D0001B684FEA53134FEA431140F20443C4F240
:1002E0000103CB1819687B681B6803F01F034FF0EC
:1002F000010000FA03F36FEA03030B4013607B680D
:100300001B791A467B681B684FEA53134FEA431365
:10031000D318FA68D318FB60FB68FA6811687A682A
:10032000126802F01F024FF0010000FA02F20A43C5
:100330001A604FF48063C4F20103FB607B681B68A2
:100340004FEA53134FEA43124FF48163C4F201039F
:10035000D3181A467B681B684FEA53134FEA4311C0
:100360004FF48163C4F20103CB1819687B681B68E2
:1003700003F01F034FF0010000FA03F36FEA0303D9
:100380000B4013607B681B684FEA53134FEA43121C
:1003900040F20C43C4F20103D3181A467B681B6871
:1003A0004FEA53134FEA431140F20C43C4F20103E6
:1003B000CB1819687B681B6803F01F034FF001001E
:1003C00000FA03F36FEA03030B4013607B685B7969
:1003D000102B44D17B681B684FEA53134FEA43123A
:1003E0004FF48163C4F20103D3181A467B681B687B
:1003F0004FEA53134FEA43114FF48163C4F20103F0
:10040000CB1819687B681B6803F01F034FF00100CD
:1004100000FA03F30B4313607B681B684FEA531326
:100420004FEA431240F20C43C4F20103D3181A46B8
:100430007B681B684FEA53134FEA431140F20C43A9
:10044000C4F20103CB1819687B681B6803F01F0313
:100450004FF0010000FA03F30B43136036E07B68B2
:100460005B791A467B681B684FEA53134FEA4313C4
:10047000D318FA68D318FB60FB68FA6811687A68C9
:10048000126802F01F024FF0010000FA02F20A4364
:100490001A601BE07B681B791A467B681B684FEA71
:1004A00053134FEA4313D318FA68D318FB60FB6861
:1004B000FA6811687A68126802F01F024FF00100B2
:1004C00000FA02F26FEA02020A401A6007F114070A
:1004D000BD4680BC704700BF80B483B000AF786079
:1004E0007B684FEA53134FEA431240F21443C4F2BD
:1004F0000103D3187A6802F01F024FF0010101FADC
:1005000002F21A6007F10C07BD4680BC704700BFBD
:1005100080B487B000AF786039604FF000037B6132
:100520004FF000033B614FF00003FB604FF000030E
:100530007B618CE07B694FF0010202FA03F33B61BF
:100540003B681A683B691340FB60FA683B699A4252
:1005500079D13B681B79012B03D03B681B79022BB7
:100560003AD17B689A687B694FEA43034FF00301F5
:1005700001FA03F36FEA03031A407B689A607B6811
:100580009A683B685B7919467B694FEA430301FA35
:1005900003F31A437B689A607B689B889AB27B69F5
:1005A0009BB24FF0010101FA03F39BB26FEA030320
:1005B0009BB213409AB27B689A807B689B889AB200
:1005C0003B689B7919467B699BB201FA03F39BB2A6
:1005D00013439AB27B689A807B681A687B694FEAFA
:1005E00043034FF0030101FA03F36FEA03031A40D8
:1005F0007B681A607B681A683B681B7919467B69BF
:100600004FEA430301FA03F31A437B681A607B68DD
:10061000DA687B699BB24FEA43034FF0030101FAAA
:1006200003F36FEA03031A407B68DA607B68DA68D9
:100630003B68DB7919467B694FEA430301FA03F310
:100640001A437B68DA607B6903F101037B617B6994
:100650000F2B7FF66FAF07F11C07BD4680BC7047BC
:1006600080B483B000AF78600B467B807A887B686B
:100670009A6107F10C07BD4680BC704780B483B017
:1006800000AF78600B467B807B687A881A8507F11B
:100690000C07BD4680BC704780B485B000AF786061
:1006A00013460A467A807B704FF00003FB604FF0E0
:1006B0000003BB607A787B8803F007034FEA83036B
:1006C00002FA03F3FB607B884FEAD3039BB21A461E
:1006D0007B884FEAD3039BB219467B6801F108017E
:1006E00053F821107B8803F007034FEA83034FF090
:1006F0000F0000FA03F36FEA030319407B6802F16D
:10070000080243F822107B884FEAD3039BB21A46B3
:100710007B6802F1080253F82220FB681343BB6098
:100720007B884FEAD3039BB21A467B6802F108022A
:10073000B96843F8221007F11407BD4680BC704722
:1007400080B485B000AF786039604FF00003FB6083
:100750007B681B6823F001027B681A607B681B685A
:10076000FB60FA684EF2FF03C0F2CF031340FB6058
:100770003B685A683B689B684FEA03231343FA6857
:100780001343FB607B68FA681A603B681B6823F0C0
:1007900070627B681A617B681B6843F001027B68AA
:1007A0001A604FF00003FB607B68FA689A607B6810
:1007B000FA68DA603B689A693B681B691343FB601F
:1007C0007B68FA689A607B689B6843F400427B68A8
:1007D0009A603B68DB68FB607B681A68FB681A43B9
:1007E0007B681A607B685B68FB60FB6823F078437A
:1007F00023F40043FB603B685B69FA681343FB60CA
:100800007B68FA685A6007F11407BD4680BC7047E0
:1008100080B483B000AF78600B46FB70FB78002B90
:1008200006D07B681B6843F001027B681A6005E014
:100830007B681B6823F001027B681A6007F10C07D4
:10084000BD4680BC704700BF80B487B000AFF86081
:100850007B600B467B8113467B724FF000037B610C
:10086000FB685B687B617A694FF41843CFF60043FD
:1008700013407B617B894FEA83534FEA93537A7A23
:100880004FEA024202F47F021A437B681A433B6A32
:1008900013437A6913437B61FB687A695A6007F1F5
:1008A0001C07BD4680BC704780B483B000AF786041
:1008B0000B46FB70FA787B689A6207F10C07BD461D
:1008C00080BC704780B483B000AF78607B685B6A9F
:1008D000DBB2184607F10C07BD4680BC704700BF6D
:1008E00080B485B000AF786039604FF00003BB6022
:1008F0004FF00003FB737B689B69BB60BA683B6881
:100900001340BB60BB68002B03D04FF00103FB73A7
:1009100002E04FF00003FB73FB7B184607F114075E
:10092000BD4680BC704700BF80B483B000AF786024
:1009300039607B683A68DA6107F10C07BD4680BC14
:10094000704700BF80B483B000AF78604FF46D4350
:10095000CEF200037A6842F0BF6242F40032DA60FD
:1009600007F10C07BD4680BC704700BF80B483B060
:1009700000AF78600B46FB70FB78002B0CD04FF477
:100980008053C4F202034FF48052C4F20202516950
:100990007A680A435A610DE04FF48053C4F20203AF
:1009A0004FF48052C4F2020251697A686FEA02027F
:1009B0000A405A6107F10C07BD4680BC704700BF72
:1009C00080B483B000AF78600B46FB70FB78002BDF
:1009D0000CD04FF48053C4F202034FF48052C4F29F
:1009E000020291697A680A439A610DE04FF48053DC
:1009F000C4F202034FF48052C4F2020291697A6891
:100A00006FEA02020A409A6107F10C07BD4680BCFA
:100A1000704700BF80B483B000AF78600B46FB70B6
:100A2000FB78002B0CD04FF48053C4F202034FF438
:100A30008052C4F20202D1697A680A43DA610DE099
:100A40004FF48053C4F202034FF48052C4F2020206
:100A5000D1697A686FEA02020A40DA6107F10C078D
:100A6000BD4680BC704700BF80B483B000AF7860E3
:100A70000B46FB70FB78002B0CD04FF48053C4F274
:100A800002034FF48052C4F20202D1687A680A432A
:100A9000DA600DE04FF48053C4F202034FF4805249
:100AA000C4F20202D1687A686FEA02020A40DA6090
:100AB00007F10C07BD4680BC704700BF80B483B00F
:100AC00000AF78600B46FB70FB78002B0CD04FF426
:100AD0008053C4F202034FF48052C4F2020211693F
:100AE0007A680A431A610DE04FF48053C4F202039E
:100AF0004FF48052C4F2020211697A686FEA02026E
:100B00000A401A6107F10C07BD4680BC704700BF60
:100B100080B582B000AF78607A684FF44053C4F279
:100B200001039A420CD14FF480504FF00101FFF7BE
:100B30009BFF4FF480504FF00001FFF795FF26E038
:100B40007A684FF46053C4F200039A420CD14FF418
:100B500080404FF00101FFF7B1FF4FF480404FF0AC
:100B60000001FFF7ABFF12E07A684FF47053C4F254
:100B700000039A420BD14FF400404FF00101FFF700
:100B80009DFF4FF400404FF00001FFF797FF07F182
:100B90000807BD4680BD00BF80B485B000AF786057
:100BA00039604FF00003FB813B685B88B3F5827FBF
:100BB00036D17B681B88FB81FB8903F44153FB81A1
:100BC0003B681A883B685B8813439AB23B68D988B4
:100BD0003B681B890B4399B23B6858893B689B89EA
:100BE000034398B23B68DB8903439BB20B439BB240
:100BF00013439AB2FB891343FB817B68FA891A80FD
:100C00007B689B88FB81FB8923F47063FB813B68D5
:100C10009A88FB891343FB817B68FA899A8035E0C7
:100C20007B689B88FB81FB8923F47063FB813B68B5
:100C30009A88FB891343FB817B68FA899A807B68D9
:100C40001B88FB81FB8903F44153FB813B681A88B5
:100C50003B685B8813439AB23B68D9883B681B8921
:100C60000B4399B23B6858893B689B89034398B210
:100C70003B68DB8903439BB20B439BB213439AB29D
:100C8000FB891343FB817B68FA891A807B689B8B05
:100C90009BB223F400639AB27B689A833B681A8AFA
:100CA0007B681A8207F11407BD4680BC704700BFFD
:100CB00080B483B000AF78600B46FB70FB78002BEC
:100CC00008D07B681B889BB243F040039AB27B68D4
:100CD0001A8007E07B681B889BB223F040039AB21E
:100CE0007B681A8007F10C07BD4680BC704700BFC7
:100CF00080B483B000AF78600B467B807B689B88B4
:100D00009BB223F480539AB27B689A807B689B885D
:100D10009AB27B8813439AB27B689A8007F10C07DA
:100D2000BD4680BC704700BF80B485B000AF78601E
:100D30000B46FB704FF00003FB607B68FB60FB68B9
:100D400003F10C03FB60FB68FA781A7007F11407D3
:100D5000BD4680BC704700BF80B485B000AF7860EE
:100D60004FF00003FB607B68FB60FB6803F10C0342
:100D7000FB60FB681B78DBB2184607F11407BD4621
:100D800080BC704780B485B000AF78600B467B8034
:100D90004FF00003FB737B681B899AB27B8813407A
:100DA0009BB2002B03D04FF00103FB7302E04FF026
:100DB0000003FB73FB7B184607F11407BD4680BC9C
:100DC000704700BF90B484B000AF02460B46FA7182
:100DD000BB714FF00003FB60BB7903F003034FEAE4
:100DE00083034FF00F0202FA03F3FB604FF000039E
:100DF000C4F20103BA794FEA9202D2B210464FF020
:100E00000002C4F20102B9794FEA9101C9B201F1BD
:100E1000020152F82110FA686FEA0202114000F153
:100E2000020243F822104FF00003C4F20103BA7922
:100E30004FEA9202D2B210464FF00002C4F2010211
:100E4000B9794FEA9101C9B201F1020152F82110BA
:100E5000FC79BA7902F003024FEA820204FA02F244
:100E6000114300F1020243F8221007F11007BD46BA
:100E700090BC704780B485B000AFF860B960FA717B
:100E8000BB71FB681A68BB686FEA03031A40FB6812
:100E90001A60FB689A68BB686FEA03031A40FB6834
:100EA0009A60FB79002B06D1FB689A68BB681A43ED
:100EB000FB689A600AE0FB79012B07D1FB689A680E
:100EC000BB6803F055331A43FB689A60FB68DA6825
:100ED000BB686FEA03031A40FB68DA60BB79002B3A
:100EE00008D1FB68DA68BB6803F055331A43FB6826
:100EF000DA600AE0BB79012B07D1FB68DA68BB68CE
:100F000003F0CC331A43FB68DA6007F11407BD46DF
:100F100080BC704780B489B000AFF860B960FA71E6
:100F2000BB714FF00003FB834FF00103BB614FF037
:100F300000033B614FF00003FB7513E0BA68BB6927
:100F400013403B613B69002B04D0FB7D3A6922FAD8
:100F500003F3FB83BB694FEA8303BB61FB7D03F1B2
:100F60000103FB75FB7D0F2BE8D9FB681A68BB6892
:100F70006FEA03031A40FB681A60FB681A68BB68D3
:100F800003F055331A43FB681A60FB689A68BB6824
:100F90006FEA03031A40FB689A60FB79002B06D1C5
:100FA000FB689A68BB681A43FB689A600AE0FB79A1
:100FB000012B07D1FB689A68BB6803F055331A43CD
:100FC000FB689A60FB68DA68BB686FEA03031A4043
:100FD000FB68DA60BB79002B08D1FB68DA68BB6874
:100FE00003F055331A43FB68DA600AE0BB79012B42
:100FF00007D1FB68DA68BB6803F0CC331A43FB689F
:10100000DA6097F82830002B08D1FB689B889AB2E9
:10101000FB8B13439AB2FB689A800CE0FB689B88B9
:101020009BB29AB2FB8B6FEA03039BB213409BB255
:101030009AB2FB689A8007F12407BD4680BC7047CE
:1010400080B588B000AF78604FF000037B6101F09D
:1010500065FC48F6B043C2F200031B68002B08D1C0
:1010600000F0E4F848F6B043C2F200034FF001028A
:101070001A607B68002B12D046F28413C0F600037E
:101080001B887A68D3187B607B6803F00703002B0A
:1010900005D07B6823F0070303F108037B607B68BE
:1010A000002B72D07A6848F6F7339A426DD848F62A
:1010B000A043C2F20003BB6148F6A043C2F20003A2
:1010C0001B68FB6104E0FB69BB61FB691B68FB619A
:1010D000FB695A687B689A4203D2FB691B68002B44
:1010E000F1D1FA6948F6A843C2F200039A424CD003
:1010F000BB691A6846F28413C0F600031B88D31834
:101100007B61FB691A68BB691A60FB695A687B6876
:10111000D21A46F28413C0F600031B884FEA430339
:101120009A4225D9FA697B68D318FB60FB695A6833
:101130007B68D21AFB685A60FB697A685A60FB6860
:101140005B68BB6048F6A043C2F200033B6102E06B
:101150003B691B683B613B691B685A68BB689A42E4
:10116000F6D33B691A68FB681A603B69FA681A6033
:1011700040F20003C2F200031A68FB695B68D21AEE
:1011800040F20003C2F200031A6001F0D9FB7B6950
:10119000002B01D103F0E4F97B69184607F1200721
:1011A000BD4680BD80B586B000AF78607B683B618E
:1011B0007B68002B35D046F28413C0F600031B88F1
:1011C000C3F100033A69D3183B613B69FB6001F04E
:1011D000A5FBFB685B68BB6048F6A043C2F2000356
:1011E0007B6102E07B691B687B617B691B685A68D5
:1011F000BB689A42F6D37B691A68FB681A607B6900
:10120000FA681A60FB685A6840F20003C2F20003F1
:101210001B68D21840F20003C2F200031A6001F00A
:101220008FFB07F11807BD4680BD00BF80B483B0B7
:1012300000AF184B23F007037B6048F6A043C2F2CF
:1012400000037A681A6048F6A043C2F200034FF028
:1012500000025A6048F6A843C2F2000348F6F8328A
:101260005A6048F6A843C2F200034FF000021A6029
:101270007B683B603B6848F6F8325A603A6848F64B
:10128000A843C2F20003136007F10C07BD4680BCFF
:10129000704700BFA800002080B483B000AF786022
:1012A0007B6803F108027B685A607B684FF0FF326D
:1012B0009A607B6803F108027B68DA607B6803F15F
:1012C00008027B681A617B684FF000021A6007F120
:1012D0000C07BD4680BC704780B483B000AF786017
:1012E0007B684FF000021A6107F10C07BD4680BC15
:1012F000704700BF80B485B000AF786039607B680C
:101300005B68FB603B68FA685A60FB689A683B68F8
:101310009A60FB689B683A685A60FB683A689A6012
:101320003B687A681A617B681B6803F101027B687D
:101330001A6007F11407BD4680BC704780B485B0C1
:1013400000AF786039603B681B68BB60BB68B3F175
:10135000FF3F03D17B681B69FB600DE07B6803F1F5
:101360000803FB6002E0FB685B68FB60FB685B688E
:101370001A68BB689A42F6D9FB685A683B685A609B
:101380003B685B683A689A603B68FA689A60FB68F9
:101390003A685A603B687A681A617B681B6803F197
:1013A00001027B681A6007F11407BD4680BC7047D4
:1013B00080B485B000AF78607B681B69FB607B6898
:1013C0005B687A6892689A607B689B687A68526802
:1013D0005A60FB685A687B689A4203D17B689A68B6
:1013E000FB685A607B684FF000021A61FB681B685B
:1013F00003F1FF32FB681A60FB681B68184607F1AF
:101400001407BD4680BC704780B485B000AFF8605B
:10141000B9607A60FB68A3F10403FB60FB684FF0DE
:1014200080721A60FB68A3F10403FB60BA68FB6872
:101430001A60FB68A3F10403FB6041F27D43C0F630
:101440000003FA681360FB68A3F11403FB607A6879
:10145000FB681A60FB68A3F10403FB60FB686FF094
:1014600002021A60FB68A3F12003FB60FB681846C8
:1014700007F11407BD4680BC704700BF80B500AFC0
:1014800040F20403C2F200031B68B3F1FF3F02D035
:1014900000F014F9FEE700F011F9FEE7064B1968B9
:1014A0000868B0E8F04F80F30988BFF36F8F4FF002
:1014B000000080F311887047BC8C0020064800684B
:1014C000006880F3088862B661B6BFF34F8FBFF340
:1014D0006F8F00DF00BF000008ED00E080B584B032
:1014E00000AF4FF46443CEF20003FB60FB681B784F
:1014F000DBB2BB60FB684FF0FF021A70FB681B7821
:10150000DBB2FB71FB79DBB203F05003DAB248F6D1
:10151000B443C2F200031A7048F6B843C2F20003A3
:101520004FF007021A6011E048F6B843C2F2000318
:101530001B6803F1FF3248F6B843C2F200031A6099
:10154000FB79DBB24FEA4303DBB2FB71FB79DBB221
:10155000DBB25BB2002BE7DB48F6B843C2F2000314
:101560001B684FEA032248F6B843C2F200031A6030
:1015700048F6B843C2F200031B6803F4E06248F681
:10158000B843C2F200031A60BB68DAB2FB681A7093
:101590004EF62053CEF200034EF62052CEF2000259
:1015A000126842F470021A604EF62053CEF2000325
:1015B0004EF62052CEF20002126842F070421A60DB
:1015C00000F0CCF840F20403C2F200034FF0000236
:1015D0001A6000F0E3F84EF63473CEF200034EF6D4
:1015E0003472CEF20002126842F040421A60FFF7F5
:1015F00065FFFFF743FF4FF00003184607F11007A0
:10160000BD4680BD80B400AF4EF60453CEF2000359
:101610004FF080521A60BFF34F8FBFF36F8FBD46FC
:1016200080BC704780B500AF00F048F840F204037A
:10163000C2F200031B6803F1010240F20403C2F28C
:1016400000031A60BFF34F8FBFF36F8F40F20403A4
:10165000C2F200031B68012B0BD14EF60453CEF2ED
:1016600000031B6803F01F03002B02D000F026F8D4
:10167000FEE780BD80B500AF40F20403C2F2000374
:101680001B68002B02D100F019F8FEE740F20403BA
:10169000C2F200031B6803F1FF3240F20403C2F2FE
:1016A00000031A6040F20403C2F200031B68002B1F
:1016B00003D14FF0000000F00BF880BDEFF3118074
:1016C0004FF0500181F3118870474FF00003184626
:1016D00080F31188704700BFEFF30980BFF36F8F6D
:1016E000124B1A681EF0100F08BF20ED108A20E977
:1016F000F04F10604DF8043D4FF0500080F311881A
:1017000001F0F8FA4FF0000080F3118808BC196866
:101710000868B0E8F04F1EF0100F08BFB0EC108A58
:1017200080F30988BFF36F8F704700BFBC8C002027
:1017300080B500AFFFF7C2FF01F0D0F90346002BE0
:1017400006D04EF60453CEF200034FF080521A60DA
:101750004FF00000FFF7BCFF80BD00BF80B400AFBA
:101760004EF21403CEF2000340F21802C2F200025D
:10177000116844F6D352C1F26202A2FB01024FEAA1
:10178000921202F1FF321A604EF21003CEF2000301
:101790004FF007021A60BD4680BC7047DFF80C00AE
:1017A000016841F4700101607047000088ED00E0BD
:1017B00090B583B000AFEFF305847C607B680F2B9E
:1017C00013D946F28813C0F600031A687B68D31851
:1017D0001B78FB7048F6B443C2F200031B78FA781A
:1017E0009A4202D2FFF76AFFFEE74EF60C53CEF2A2
:1017F00000031B6803F4E06248F6B843C2F200033A
:101800001B689A4202D9FFF759FFFEE707F10C0760
:10181000BD4690BD80B584B000AF786039607B680C
:10182000FB60FB68002B02D1FFF748FFFEE7FFF7E4
:10183000F9FEFB681A68FB68DB6BF968096C01FB51
:1018400003F3D218FB685A60FB684FF000029A63FA
:10185000FB681A68FB689A60FB681A68FB68DB6BB8
:1018600003F1FF33F968096C01FB03F3D218FB683D
:10187000DA60FB684FF0FF325A64FB684FF0FF32CA
:101880009A643B68002B0FD1FB681B69002B17D0B3
:10189000FB6803F11003184601F076FB0346012BA9
:1018A0000ED1FFF7AFFE0BE0FB6803F11003184603
:1018B000FFF7F2FCFB6803F124031846FFF7ECFC8A
:1018C000FFF7D8FE4FF00103184607F11007BD4699
:1018D00080BD00BF80B588B000AFF860B960134626
:1018E000FB714FF00003FB61FB68002B2DD04FF024
:1018F0005400FFF7A5FBB861BB69002B25D0FB683E
:10190000BA6802FB03F303F101037B617869FFF717
:1019100097FB0246BB691A60BB691B68002B11D09C
:10192000BB69FA68DA63BB69BA681A64B8694FF0D0
:101930000101FFF76FFFBB69FA7983F85020BB699B
:10194000FB6102E0B869FFF72DFCFB69002B02D1B7
:10195000FFF7B4FEFEE7FB69184607F12007BD4616
:1019600080BD00BF80B58AB000AFF860B9607A6012
:101970003B604FF000037B62FB683B623B6A002BDD
:1019800002D1FFF79BFEFEE7BB68002B03D13B6A49
:101990001B6C002B02D14FF0010301E04FF000035C
:1019A000002B02D1FFF78AFEFEE73B68022B03D132
:1019B0003B6ADB6B012B02D14FF0010301E04FF0DA
:1019C0000003002B02D1FFF779FEFEE701F08EFD48
:1019D0000346002B02D17B68002B02D14FF001039C
:1019E00001E04FF00003002B03D1FFF767FEFEE795
:1019F00000BFFFF717FE3B6A9A6B3B6ADB6B9A42AC
:101A000002D33B68022B1FD1386AB9683A6800F0EC
:101A100065FAF8613B6A5B6A002B0BD03B6A03F105
:101A20002403184601F0B0FA0346012B07D1FFF753
:101A3000E9FD04E0FB69002B01D0FFF7E3FDFFF7B0
:101A400019FE4FF001035DE07B68002B04D1FFF726
:101A500011FE4FF0000355E07B6A002B07D107F120
:101A60001403184601F000FB4FF001037B62FFF7FF
:101A700001FE00F053FFFFF7D5FD3B6A5B6CB3F14D
:101A8000FF3F03D13B6A4FF000025A643B6A9B6CF4
:101A9000B3F1FF3F03D13B6A4FF000029A64FFF7B6
:101AA000E9FD07F1140207F104031046194601F09D
:101AB000F7FA0346002B1ED1386A00F031FB0346CB
:101AC000002B12D03B6A03F110027B6810461946C6
:101AD00001F0B4F9386A00F09DFA00F031FF0346D6
:101AE000002B85D1FFF78EFD82E7386A00F092FA6D
:101AF00000F026FF7CE7386A00F08CFA00F020FF47
:101B00004FF00003184607F12807BD4680BD00BF0F
:101B100080B588B000AFF860B9607A603B60FB6860
:101B2000BB61BB69002B02D1FFF7C8FDFEE7BB68B4
:101B3000002B03D1BB691B6C002B02D14FF00103BA
:101B400001E04FF00003002B02D1FFF7B7FDFEE7E5
:101B50003B68022B03D1BB69DB6B012B02D14FF039
:101B6000010301E04FF00003002B02D1FFF7A6FDB7
:101B7000FEE7FFF71DFEFFF7A1FD7861BB699A6BD9
:101B8000BB69DB6B9A4202D33B68022B32D1B86946
:101B9000B9683A6800F0A2F90346002B06D07B68CA
:101BA000002B03D07B684FF001021A60BB699B6C6D
:101BB000B3F1FF3F14D1BB695B6A002B16D0BB6940
:101BC00003F12403184601F0DFF90346002B0DD082
:101BD0007B68002B0AD07B684FF001021A6005E099
:101BE000BB699B6C03F10102BB699A644FF001036E
:101BF000FB6102E04FF00003FB617869FFF768FDCD
:101C0000FB69184607F12007BD4680BD80B58AB044
:101C100000AFF860B9607A603B604FF000037B6210
:101C2000FB683B623B6A002B02D1FFF747FDFEE7F2
:101C3000BB68002B03D13B6A1B6C002B02D14FF019
:101C4000010301E04FF00003002B02D1FFF736FD46
:101C5000FEE701F04BFC0346002B02D17B68002B12
:101C600002D14FF0010301E04FF00003002B03D13C
:101C7000FFF724FDFEE700BFFFF7D4FC3B6A9B6B38
:101C8000002B3FD03B6ADB68FB61386AB96800F023
:101C900099F93B68002B1ED13B6A9B6B03F1FF3225
:101CA0003B6A9A633B6A1B68002B04D101F06CFD10
:101CB00002463B6A5A603B6A1B69002B1DD03B6A97
:101CC00003F11003184601F05FF90346012B14D10C
:101CD000FFF798FC11E03B6AFA69DA603B6A5B6ADD
:101CE000002B0AD03B6A03F12403184601F04CF99B
:101CF0000346002B01D0FFF785FCFFF7BBFC4FF03C
:101D000001036BE07B68002B04D1FFF7B3FC4FF0BD
:101D1000000363E07B6A002B07D107F11403184628
:101D200001F0A2F94FF001037B62FFF7A3FC00F082
:101D3000F5FDFFF777FC3B6A5B6CB3F1FF3F03D126
:101D40003B6A4FF000025A643B6A9B6CB3F1FF3F61
:101D500003D13B6A4FF000029A64FFF78BFC07F156
:101D6000140207F104031046194601F099F90346DD
:101D7000002B2CD1386A00F09DF90346002B20D0AF
:101D80003B6A1B68002B08D1FFF74CFC3B6A5B6881
:101D9000184601F0CFFBFFF76DFC3B6A03F124020C
:101DA0007B681046194601F049F8386A00F032F9AC
:101DB00000F0C6FD0346002B7FF45DAFFFF722FC69
:101DC00059E7386A00F026F900F0BAFD53E7386A9F
:101DD00000F020F900F0B4FD4FF00003184607F1C1
:101DE0002807BD4680BD00BF80B588B000AFF86051
:101DF000B9607A60FB68BB61BB69002B02D1FFF759
:101E00005DFCFEE7BB68002B03D1BB691B6C002B9C
:101E100002D14FF0010301E04FF00003002B02D18B
:101E2000FFF74CFCFEE7FFF7C3FCFFF747FC7861C8
:101E3000BB699B6B002B2DD0B869B96800F0C2F864
:101E4000BB699B6B03F1FF32BB699A63BB695B6C37
:101E5000B3F1FF3F14D1BB691B69002B16D0BB69DE
:101E600003F11003184601F08FF80346002B0DD044
:101E70007B68002B0AD07B684FF001021A6005E0F6
:101E8000BB695B6C03F10102BB695A644FF001034B
:101E9000FB6102E04FF00003FB617869FFF718FC7B
:101EA000FB69184607F12007BD4680BD80B584B0A8
:101EB00000AF78607B68002B02D1FFF7FFFBFEE7E5
:101EC000FFF7B0FB7B689B6BFB60FFF7D3FBFB6806
:101ED000184607F11007BD4680BD00BF80B586B02B
:101EE00000AFF860B9607A604FF000037B61FB6877
:101EF0001B6C002B0ED1FB681B68002B56D1FB68B6
:101F00005B68184601F0B8FB7861FB684FF000028F
:101F10005A604BE07B68002B1AD1FB689A68FB681B
:101F20001B6C1046B9681A4604F00CF9FB689A68F5
:101F3000FB681B6CD218FB689A60FB689A68FB68A8
:101F40005B689A4232D3FB681A68FB689A602DE09E
:101F5000FB68DA68FB681B6C1046B9681A4604F027
:101F6000F1F8FB68DA68FB681B6CC3F10003D21858
:101F7000FB68DA60FB68DA68FB681B689A4208D283
:101F8000FB685A68FB681B6CC3F10003D218FB683E
:101F9000DA607B68022B09D1FB689B6B002B05D0B4
:101FA000FB689B6B03F1FF32FB689A63FB689B6BDA
:101FB00003F10102FB689A637B69184607F1180771
:101FC000BD4680BD80B582B000AF786039607B6867
:101FD0001B6C002B19D07B68DA687B681B6CD218ED
:101FE0007B68DA607B68DA687B685B689A4203D357
:101FF0007B681A687B68DA607B68DA687B681B6CD0
:10200000386811461A4604F09DF807F10807BD46E6
:1020100080BD00BF80B582B000AF7860FFF702FBE3
:1020200014E07B685B6A002B15D07B6803F1240306
:10203000184600F0A9FF0346002B01D001F088F8F4
:102040007B689B6C03F1FF327B689A647B689B6CB6
:10205000002BE6DC00E000BF7B684FF0FF329A64A3
:10206000FFF708FBFFF7DEFA14E07B681B69002B23
:1020700015D07B6803F11003184600F085FF034676
:10208000002B01D001F064F87B685B6C03F1FF3238
:102090007B685A647B685B6C002BE6DC00E000BF69
:1020A0007B684FF0FF325A64FFF7E4FA07F1080744
:1020B000BD4680BD80B584B000AF7860FFF7B2FA4E
:1020C0007B689B6B002B03D14FF00103FB6002E0A8
:1020D0004FF00003FB60FFF7CDFAFB68184607F1ED
:1020E0001007BD4680BD00BF80B584B000AF7860EA
:1020F0007B68002B02D1FFF7E1FAFEE77B689B6B60
:10210000002B03D14FF00103FB6002E04FF000030E
:10211000FB60FB68184607F11007BD4680BD00BF95
:1021200080B584B000AF7860FFF77CFA7B689A6B6B
:102130007B68DB6B9A4203D14FF00103FB6002E046
:102140004FF00003FB60FFF795FAFB68184607F1B4
:102150001007BD4680BD00BF80B485B000AF786079
:1021600039604FF00003FB601FE048F61063C2F2D5
:102170000003FA6853F83230002B12D148F610638E
:10218000C2F20003FA68396843F8321048F6106268
:10219000C2F20002FB684FEAC303D3187A685A60A0
:1021A00006E0FB6803F10103FB60FB68072BDCD949
:1021B00007F11407BD4680BC704700BF80B584B0EE
:1021C00000AF786039607B68FB60FFF72BFAFB6833
:1021D0005B6CB3F1FF3F03D1FB684FF000025A6420
:1021E000FB689B6CB3F1FF3F03D1FB684FF000022B
:1021F0009A64FFF73FFAFB689B6B002B06D1FB68E4
:1022000003F124031846396800F074FEF868FFF7FC
:1022100001FF07F11007BD4680BD00BF80B58AB041
:1022200002AFF860B9603B601346FB80FB68002B8F
:1022300002D1FFF743FAFEE7BB6A042B02D9FFF78E
:102240003DFAFEE7FB881846396B01F0D9F8B86112
:10225000BB69002B00F0A480BB691A6BFB8803F1FB
:10226000FF334FEA8303D3187B617B6923F00703B5
:102270007B617B6903F00703002B02D0FFF71EFA96
:10228000FEE7FB880093B869B968BA6A7B6B00F017
:102290007DFF7869F9683A68FFF7B6F80246BB69CE
:1022A0001A60FB6A002B02D0FB6ABA691A60FFF75A
:1022B000B9F948F69453C2F200031B6803F1010216
:1022C00048F69453C2F200031A6048F6BC43C2F2C7
:1022D00000031B68002B0FD148F6BC43C2F2000379
:1022E000BA691A6048F69453C2F200031B68012BC6
:1022F00018D100F09FFF15E048F6A053C2F200038A
:102300001B68002B0ED148F6BC43C2F200031B68C9
:10231000DA6ABB6A9A4205D848F6BC43C2F20003A7
:10232000BA691A6048F6B053C2F200031B6803F1A1
:10233000010248F6B053C2F200031A6048F6B053E7
:10234000C2F200031A68BB691A64BB69DB6A4FF00A
:10235000010202FA03F248F69C53C2F200031B6822
:102360001A4348F69C53C2F200031A60BB69DA6A4A
:1023700013464FEA83039B184FEA830348F6C04293
:10238000C2F200029A18BB6903F104031046194611
:10239000FEF7B0FF4FF00103FB61FFF76BF902E0BE
:1023A0004FF0FF33FB61FB69012B11D148F6A053BD
:1023B000C2F200031B68002B0AD048F6BC43C2F2ED
:1023C00000031B68DA6ABB6A9A4201D2FFF71AF966
:1023D000FB69184607F12007BD4680BD80B586B071
:1023E00000AF786039604FF000037B617B68002BA1
:1023F00002D1FFF763F9FEE73B68002B02D1FFF73C
:102400005DF9FEE748F6B453C2F200031B68002BE7
:1024100002D0FFF753F9FEE700F080FA48F6985330
:10242000C2F200031B683B617B681A683B68D318E3
:10243000FB607B681A683B699A420CD97B681A6812
:10244000FB689A4213D9FA683B699A420FD94FF058
:1024500001037B610BE07B681A68FB689A4203D832
:10246000FA683B699A4202D94FF001037B617B68AD
:10247000FA681A607B69002B26D048F6BC43C2F28A
:1024800000031B6803F104031846FEF791FF03469F
:10249000002B16D148F6BC43C2F200031B68DB6A6E
:1024A0004FF0010202FA03F36FEA030248F69C536D
:1024B000C2F200031B681A4048F69C53C2F20003A4
:1024C0001A60F86800F056FF00F03AFAB860BB688E
:1024D000002B01D1FFF796F807F11807BD4680BD24
:1024E00080B584B000AF78604FF00003FB607B687C
:1024F000002B3DD048F6B453C2F200031B68002BFA
:1025000002D0FFF7DBF8FEE700F008FA48F6985330
:10251000C2F200031A687B68D318BB6048F6BC435C
:10252000C2F200031B6803F104031846FEF740FFE4
:102530000346002B16D148F6BC43C2F200031B68C9
:10254000DB6A4FF0010202FA03F36FEA030248F676
:102550009C53C2F200031B681A4048F69C53C2F217
:1025600000031A60B86800F005FF00F0E9F9F860B0
:10257000FB68002B01D1FFF745F807F11007BD46B6
:1025800080BD00BF80B586B000AF78607B683B61DE
:102590003B69002B02D1FFF791F8FEE748F6BC43F8
:1025A000C2F200031B683A699A4203D14FF000035C
:1025B000FB753BE0FFF736F83B695B69FB60FFF7B3
:1025C00059F848F64C53C2F200031B68FA689A4265
:1025D00007D048F65053C2F200031B68FA689A42CB
:1025E00003D14FF00203FB7520E0FA6848F68053F0
:1025F000C2F200039A420BD13B699B6A002B03D1C4
:102600004FF00303FB7511E04FF00203FB750DE083
:10261000FA6848F66853C2F200039A4203D14FF0B9
:102620000403FB7502E04FF00103FB75FB7D1846C8
:1026300007F11807BD4680BD80B584B000AF786053
:10264000FEF7F0FF7B68002B05D148F6BC43C2F2D1
:1026500000031B6800E07B68FB60FB6803F1040378
:102660001846FEF7A5FE0346002B22D1FB68D96A67
:1026700048F6C042C2F200020B464FEA83035B18E1
:102680004FEA8303D3181B68002B12D1FB68DB6A67
:102690004FF0010202FA03F36FEA030248F69C537B
:1026A000C2F200031B681A4048F69C53C2F20003B2
:1026B0001A60FB689B6A002B05D0FB6803F11803C6
:1026C0001846FEF775FEFB6803F1040348F68050D8
:1026D000C2F200001946FEF70DFEFEF7CBFF48F6EA
:1026E000BC43C2F200031B68FA689A422AD148F63A
:1026F000A053C2F200031B68002B0CD048F6B45361
:10270000C2F200031B68002B02D0FEF7D7FFFEE7E2
:10271000FEF778FF23E048F68053C2F200031A6800
:1027200048F69453C2F200031B689A4207D148F658
:10273000BC43C2F200034FF000021A600FE000F049
:10274000D9FA0CE048F6A053C2F200031B68002B34
:1027500005D0FEF767FF00F09BFEFEF78BFF07F149
:102760001007BD4680BD00BF80B584B000AF786063
:102770004FF00003FB607B68BB607B68002B02D1DD
:10278000FEF79CFFFEE7BB685A6948F68053C2F229
:1027900000039A4202D14FF0010301E04FF0000321
:1027A000002B15D0BB689A6A48F65453C2F2000356
:1027B0009A420DD0BB689B6A002B02D14FF00103F7
:1027C00001E04FF00003002B02D04FF00103FB604B
:1027D000FB68184607F11007BD4680BD80B584B080
:1027E00000AF78607B68FB607B68002B02D1FEF74E
:1027F00065FFFEE7FB68002B48D048F6BC43C2F2F9
:1028000000031B68FA689A4240D0FEF70BFFF86895
:10281000FFF7AAFF0346012B36D1FB6803F104033F
:102820001846FEF7C5FDFB68DB6A4FF0010202FAAD
:1028300003F248F69C53C2F200031B681A4348F6A1
:102840009C53C2F200031A60FB68DA6A13464FEA2F
:1028500083039B184FEA830348F6C042C2F200028A
:102860009A18FB6803F1040310461946FEF742FD6F
:10287000FB68DA6A48F6BC43C2F200031B68DB6AF5
:102880009A4201D3FEF7BEFEFEF7F4FE07F11007F1
:10289000BD4680BD80B586B004AF4FF00003009305
:1028A0004FF0000301934FF0000302934FF0000339
:1028B000039343F26910C0F6000046F28C11C0F693
:1028C00000014FF0C8024FF00003FFF7A7FC78604B
:1028D0007B68012B02D100F073FF78607B68012BCD
:1028E00012D1FEF7EBFE48F6A053C2F200034FF000
:1028F00001021A6048F69853C2F200034FF000023A
:102900001A60FEF7EBFD05E07B68002B02D1FEF7B5
:10291000D5FEFEE707F10807BD4680BD80B400AFD5
:1029200048F6B453C2F200031B6803F1010248F6F3
:10293000B453C2F200031A60BD4680BC704700BFAA
:1029400080B582B000AF4FF000037B6048F6B4530F
:10295000C2F200031B68002B02D1FEF7AFFEFEE7B8
:10296000FEF760FE48F6B453C2F200031B6803F1A1
:10297000FF3248F6B453C2F200031A6048F6B4536B
:10298000C2F200031B68002B40F08C8048F6945381
:10299000C2F200031B68002B00F0848048E048F678
:1029A0005453C2F20003DB68DB683B603B6803F111
:1029B00018031846FEF7FCFC3B6803F104031846B5
:1029C000FEF7F6FC3B68DB6A4FF0010202FA03F205
:1029D00048F69C53C2F200031B681A4348F69C5306
:1029E000C2F200031A603B68DA6A13464FEA8303B7
:1029F0009B184FEA830348F6C042C2F200029A18BD
:102A00003B6803F1040310461946FEF773FC3B686C
:102A1000DA6A48F6BC43C2F200031B68DB6A9A42DA
:102A200006D348F6A853C2F200034FF001021A6021
:102A300048F65453C2F200031B68002BAFD148F68E
:102A4000A453C2F200031B68002B1FD017E000F054
:102A500045F80346002B06D048F6A853C2F20003FF
:102A60004FF001021A6048F6A453C2F200031B683B
:102A700003F1FF3248F6A453C2F200031A6048F68D
:102A8000A453C2F200031B68002BE0D148F6A85300
:102A9000C2F200031B68012B04D14FF001037B60DD
:102AA000FEF7B0FDFEF7E6FD7B68184607F1080764
:102AB000BD4680BD80B582B000AFFEF7B3FD48F6DD
:102AC0009853C2F200031B687B60FEF7D3FD7B685E
:102AD000184607F10807BD4680BD00BF80B586B027
:102AE00000AF4FF000037B6148F6B453C2F200031D
:102AF0001B68002B40F0DF8048F69853C2F20003B9
:102B00001B6803F1010248F69853C2F200031A60F1
:102B100048F69853C2F200031B683B613B69002BE7
:102B20002ED148F64C53C2F200031B681B68002BE1
:102B300002D0FEF7C3FDFEE748F64C53C2F2000395
:102B40001B68FB6048F65053C2F200031A6848F64F
:102B50004C53C2F200031A6048F65053C2F200030D
:102B6000FA681A6048F6AC53C2F200031B6803F11E
:102B7000010248F6AC53C2F200031A6000F088FC70
:102B800040F20803C2F200031B683A699A4271D30B
:102B900000E000BF48F64C53C2F200031B681B68FC
:102BA000002B02D14FF0010301E04FF00003002B96
:102BB00007D040F20803C2F200034FF0FF321A6060
:102BC00058E048F64C53C2F200031B68DB68DB6830
:102BD000BB60BB685B687B603A697B689A4206D2DF
:102BE00040F20803C2F200037A681A6042E0BB6850
:102BF00003F104031846FEF7DBFBBB689B6A002B5E
:102C000005D0BB6803F118031846FEF7D1FBBB687B
:102C1000DB6A4FF0010202FA03F248F69C53C2F25B
:102C200000031B681A4348F69C53C2F200031A6063
:102C3000BB68DA6A13464FEA83039B184FEA8303A3
:102C400048F6C042C2F200029A18BB6803F10403BE
:102C500010461946FEF74EFBBB68DA6A48F6BC43DD
:102C6000C2F200031B68DB6A9A4292D34FF0010361
:102C70007B618EE748F6BC43C2F200031B68D96A49
:102C800048F6C042C2F200020B464FEA83035B18CB
:102C90004FEA8303D3181B68012B02D94FF00103BD
:102CA0007B6148F6A453C2F200031B68002B10D1CD
:102CB00001F050FC0DE048F6A453C2F200031B687B
:102CC00003F1010248F6A453C2F200031A6001F0B6
:102CD00041FC48F6A853C2F200031B68002B02D047
:102CE0004FF001037B617B69184607F11807BD4669
:102CF00080BD00BF90B585B000AF48F6B453C2F2B6
:102D000000031B68002B07D048F6A853C2F200034B
:102D10004FF001021A608CE048F6A853C2F200039B
:102D20004FF000021A6048F6BC43C2F200031B6871
:102D30001A6848F6BC43C2F200031B681B6B9A4238
:102D40000FD848F6BC43C2F200031A6848F6BC43E9
:102D5000C2F200031B6803F134031046194601F068
:102D60000BFC48F6BC43C2F200031B681B6B184601
:102D700046F29411C0F600014FF0140203F0D2F9AC
:102D80000346002B0FD048F6BC43C2F200031A687A
:102D900048F6BC43C2F200031B6803F1340310463B
:102DA000194601F0E9FB48F69C53C2F200031B6888
:102DB0007B607B68B3FA83F4FC70FB78C3F11F037C
:102DC000FB6048F6C042C2F20002F9680B464FEAC7
:102DD00083035B184FEA8303D3181B68002B02D1CF
:102DE000FEF76CFCFEE7FA6813464FEA83039B1874
:102DF0004FEA830348F6C042C2F200029B18BB6050
:102E0000BB685B685A68BB685A60BB685A68BB6835
:102E100003F108039A4204D1BB685B685A68BB6837
:102E20005A60BB685B68DA6848F6BC43C2F20003CC
:102E30001A6007F11407BD4690BD00BF80B584B08D
:102E400000AF786039607B68002B02D1FEF736FC5A
:102E5000FEE748F6BC43C2F200031B6803F1180307
:102E600078681946FEF76AFA48F6BC43C2F20003D6
:102E70001B6803F104031846FEF79AFA0346002B79
:102E800016D148F6BC43C2F200031B68DB6A4FF060
:102E9000010202FA03F36FEA030248F69C53C2F2FE
:102EA00000031B681A4048F69C53C2F200031A60E4
:102EB0003B68B3F1FF3F0ED148F6BC43C2F20003BA
:102EC0001B6803F1040348F68050C2F20000194663
:102ED000FEF710FA0AE048F69853C2F200031A68A7
:102EE0003B68D318FB60F86800F044FA07F110075C
:102EF000BD4680BD80B584B000AF786039607B6826
:102F0000002B02D1FEF7DAFBFEE748F6BC43C2F223
:102F100000031B6803F1180378681946FEF7EAF905
:102F200048F6BC43C2F200031B6803F104031846D1
:102F3000FEF73EFA0346002B16D148F6BC43C2F218
:102F400000031B68DB6A4FF0010202FA03F36FEA29
:102F5000030248F69C53C2F200031B681A4048F66D
:102F60009C53C2F200031A6048F69853C2F2000361
:102F70001A683B68D318FB60F86800F0FBF907F1AA
:102F80001007BD4680BD00BF80B584B000AF78603B
:102F90007B68DB68DB68BB60BB68002B02D1FEF797
:102FA0008DFBFEE7BB6803F118031846FEF700FA35
:102FB00048F6B453C2F200031B68002B2BD1BB6848
:102FC00003F104031846FEF7F3F9BB68DB6A4FF020
:102FD000010202FA03F248F69C53C2F200031B6896
:102FE0001A4348F69C53C2F200031A60BB68DA6ABF
:102FF00013464FEA83039B184FEA830348F6C04207
:10300000C2F200029A18BB6803F104031046194685
:10301000FEF770F909E0BB6803F1180348F6545055
:10302000C2F200001946FEF765F9BB68DA6A48F695
:10303000BC43C2F200031B68DB6A9A420AD94FF014
:103040000103FB6048F6A853C2F200034FF00102EF
:103050001A6002E04FF00003FB60FB68184607F1BE
:103060001007BD4680BD00BF80B582B000AF78605C
:103070007B68002B02D1FEF721FBFEE748F6AC533C
:10308000C2F200031A687B681A6048F69853C2F2CD
:1030900000031A687B685A6007F10807BD4680BDC7
:1030A00080B584B000AF786039607B68002B02D1B6
:1030B000FEF704FBFEE73B68002B02D1FEF7FEFAA9
:1030C000FEE7FEF7AFFA48F69853C2F200031B681A
:1030D000BB603B681B68B3F1FF3F03D14FF00003B7
:1030E000FB602CE07B681A6848F6AC53C2F2000320
:1030F0001B689A4208D07B685A68BB689A4203D81A
:103100004FF00103FB601AE07B685B68BA68D21A73
:103110003B681B689A420FD23B681A687B68596803
:10312000BB68CB1AD2183B681A607868FFF79CFF1F
:103130004FF00003FB6002E04FF00103FB60FEF77D
:1031400099FAFB68184607F11007BD4680BD00BF1D
:1031500080B400AF48F6A853C2F200034FF001025A
:103160001A60BD4680BC704780B582B000AF786001
:1031700000F0B2F848F6C043C2F200031B68012B0E
:1031800001D9FEF73FFA01F0F1F9F1E780B586B019
:1031900000AFF860B9607A603B604FF000037B617C
:1031A00013E0BA687B69D3181A78F9687B69CB1881
:1031B00003F130031A71BA687B69D3181B78002BAE
:1031C00007D07B6903F101037B617B69092BE8D997
:1031D00000E000BFFB684FF0000283F83D207B68F1
:1031E000042B02D94FF004037B60FB687A68DA6233
:1031F000FB687A689A64FB684FF00002DA64FB6847
:1032000003F104031846FEF767F8FB6803F118039F
:103210001846FEF761F8FB68FA681A617B68C3F12B
:103220000502FB689A61FB68FA685A6207F11807A1
:10323000BD4680BD80B582B000AF4FF000037B601B
:1032400012E07A6813464FEA83039B184FEA830320
:1032500048F6C042C2F200029B181846FEF71CF85E
:103260007B6803F101037B607B68042BE9D948F696
:103270002450C2F20000FEF70FF848F63850C2F2B0
:103280000000FEF709F848F65450C2F20000FEF7BD
:1032900003F848F66850C2F20000FDF7FDFF48F65B
:1032A0008050C2F20000FDF7F7FF48F64C53C2F21F
:1032B000000348F62452C2F200021A6048F6505346
:1032C000C2F2000348F63852C2F200021A6007F157
:1032D0000807BD4680BD00BF80B582B000AF3DE0AD
:1032E000FFF71CFB48F66853C2F200031B68002B73
:1032F00014BF00230123DBB27B60FFF721FB7B6857
:10330000002B2BD1FEF78EF948F66853C2F200036A
:10331000DB68DB683B603B6803F104031846FEF79B
:1033200047F848F69453C2F200031B6803F1FF32DA
:1033300048F69453C2F200031A6048F67C53C2F276
:1033400000031B6803F1FF3248F67C53C2F200030E
:103350001A60FEF78FF9386800F08AF848F67C5357
:10336000C2F200031B68002BBAD107F10807BD4663
:1033700080BD00BF80B582B000AF786048F6BC4326
:10338000C2F200031B687A685A6048F69853C2F28A
:1033900000031B687A689A4210D248F65053C2F272
:1033A00000031A6848F6BC43C2F200031B6803F12D
:1033B000040310461946FDF7C1FF1DE048F64C53C3
:1033C000C2F200031A6848F6BC43C2F200031B684D
:1033D00003F1040310461946FDF7B0FF40F208035D
:1033E000C2F200031B687A689A4205D240F20803D1
:1033F000C2F200037A681A6007F10807BD4680BD73
:1034000080B584B000AF03463960FB804FF05000B8
:10341000FDF716FEF860FB68002B23D03B68002BFD
:1034200007D1FB884FEA83031846FDF709FE0346E0
:1034300000E03B68FA681363FB681B6B002B06D146
:10344000F868FDF7AFFE4FF00003FB600AE0FB6891
:103450001A6BFB884FEA830310464FF0A5011A460A
:1034600002F079FEFB68184607F11007BD4680BDE3
:1034700080B582B000AF78607B681B6B1846FDF7A3
:1034800091FE7868FDF78EFE07F10807BD4680BD06
:1034900080B483B000AF48F64C53C2F200031B68FF
:1034A0001B68002B02D14FF0010301E04FF0000335
:1034B000002B07D040F20803C2F200034FF0FF32A6
:1034C0001A600EE048F64C53C2F200031B68DB683A
:1034D000DB687B607B685A6840F20803C2F2000335
:1034E0001A6007F10C07BD4680BC704780B483B0FA
:1034F00000AF48F6A053C2F200031B68002B03D1B3
:103500004FF001037B600DE048F6B453C2F20003B4
:103510001B68002B03D14FF002037B6002E04FF0E9
:1035200000037B607B68184607F10C07BD4680BC32
:10353000704700BF80B584B000AF78607B68FB60E7
:103540007B68002B00F09380FB68DA6A48F6BC4386
:10355000C2F200031B68DB6A9A4280F08880FB6835
:103560009B69002B09DB48F6BC43C2F200031B68D1
:10357000DB6AC3F10502FB689A61FB685969FB6865
:10358000DA6A13464FEA83039B184FEA830348F62F
:10359000C042C2F200029B18994202D14FF00103CF
:1035A00001E04FF00003002B59D0FB6803F1040346
:1035B0001846FDF7FDFE0346002B22D1FB68D96AB1
:1035C00048F6C042C2F200020B464FEA83035B1882
:1035D0004FEA8303D3181B68002B12D1FB68DB6A08
:1035E0004FF0010202FA03F36FEA030248F69C531C
:1035F000C2F200031B681A4048F69C53C2F2000353
:103600001A6048F6BC43C2F200031B68DA6AFB6822
:10361000DA62FB68DB6A4FF0010202FA03F248F655
:103620009C53C2F200031B681A4348F69C53C2F233
:1036300000031A60FB68DA6A13464FEA83039B189B
:103640004FEA830348F6C042C2F200029A18FB68B0
:1036500003F1040310461946FDF74CFE07E048F657
:10366000BC43C2F200031B68DA6AFB68DA6207F146
:103670001007BD4680BD00BF80B584B000AF786044
:103680007B68BB604FF00003FB607B68002B74D04D
:10369000BB68DB6C002B02D1FEF710F8FEE7BB68BD
:1036A000DB6C03F1FF32BB68DA64BB68DA6ABB68C3
:1036B0009B6C9A4261D0BB68DB6C002B5DD1BB6810
:1036C00003F104031846FDF773FE0346002B22D1D5
:1036D000BB68D96A48F6C042C2F200020B464FEA04
:1036E00083035B184FEA8303D3181B68002B12D1A6
:1036F000BB68DB6A4FF0010202FA03F36FEA0302D0
:1037000048F69C53C2F200031B681A4048F69C53CB
:10371000C2F200031A60BB689A6CBB68DA62BB68CD
:10372000DB6AC3F10502BB689A61BB68DB6A4FF0D4
:10373000010202FA03F248F69C53C2F200031B682E
:103740001A4348F69C53C2F200031A60BB68DA6A57
:1037500013464FEA83039B184FEA830348F6C0429F
:10376000C2F200029A18BB6803F10403104619461E
:10377000FDF7C0FD4FF00103FB60FB68184607F141
:103780001007BD4680BD00BF80B400AF48F6BC4303
:10379000C2F200031B68002B08D048F6BC43C2F2FB
:1037A00000031B68DA6C02F10102DA6448F6BC43DC
:1037B000C2F200031B681846BD4680BC704700BFBC
:1037C00080B586B004AF4FF000037B6000F0ACFA28
:1037D00048F6E853C2F200031B68002B1AD04FF0E2
:1037E000020300934FF0000301934FF00003029394
:1037F0004FF00003039343F65510C0F6000046F265
:10380000A811C0F600014FF4C8724FF00003FEF794
:1038100005FD78607B68002B02D1FDF74FFFFEE7C6
:103820007B68184607F10807BD4680BD80B588B0A3
:1038300000AFF860B9607A603B604FF00003FB6155
:1038400048F6E853C2F200031B68002B3DD0BB686A
:103850003B617B687B61FB68BB61BB68052B25DC3A
:10386000FFF744FE0346022B0FD148F6E853C2F29D
:1038700000031A6807F1100310461946BA6A4FF0A0
:103880000003FEF76FF8F8611FE048F6E853C2F254
:1038900000031A6807F11003104619464FF00002A2
:1038A0004FF00003FEF75EF8F8610EE048F6E853CB
:1038B000C2F200031A6807F11003104619463A686D
:1038C0004FF00003FEF724F9F861FB69184607F191
:1038D0002007BD4680BD00BF80B586B002AF7860CE
:1038E000396048F6E053C2F200031B68DB68DB680E
:1038F000FB60FB6803F104031846FDF759FDFB6804
:10390000DB69012B1ED1FB689A697B68D318F868C4
:1039100019463A687B6800F0B9F80346012B11D1CB
:103920004FF000030093F8684FF000017A684FF001
:103930000003FFF77BFFB860BB68002B02D1FDF7E7
:10394000BDFEFEE7FB685B6AF868984707F1100761
:10395000BD4680BD80B584B000AF786007F1080334
:10396000184600F043F8F860BB68F868194600F0A4
:1039700003F800F0D5F8F1E780B584B000AF7860C7
:103980003960FEF7CBFF07F10803184600F058F83E
:10399000F860BB68002B21D13B68002B0AD17A6804
:1039A000FB689A4206D8FEF7CBFF7868F968FFF704
:1039B00093FF17E048F6E853C2F200031A687968EB
:1039C000FB68CB1A10461946FEF7F8FBFEF7B8FF66
:1039D0000346002B05D1FDF715FE02E0FEF7B0FF10
:1039E00000E000BF07F11007BD4680BD80B485B080
:1039F00000AF786048F6E053C2F200031B681B6812
:103A0000002B14BF00230123DBB21A467B681A6027
:103A10007B681B68002B08D148F6E053C2F2000314
:103A20001B68DB681B68FB6002E04FF00003FB6073
:103A3000FB68184607F11407BD4680BC704700BFFD
:103A400080B584B000AF7860FFF734F8F86048F6CE
:103A5000EC53C2F200031B68FA689A4206D200F0E7
:103A6000F1F87B684FF001021A6003E07B684FF0C9
:103A700000021A6048F6EC53C2F20003FA681A60BA
:103A8000FB68184607F11007BD4680BD80B586B0BB
:103A900000AFF860B9607A603B604FF000037B6173
:103AA000FB68BA685A60FB68FA681A61BA687B6892
:103AB0009A4217D87A683B68D21AFB689B699A4287
:103AC00003D34FF001037B6124E048F6E453C2F2D4
:103AD00000031A68FB6803F1040310461946FDF75A
:103AE0002DFC17E07A683B689A4207D2BA683B68B7
:103AF0009A4203D34FF001037B610BE048F6E05399
:103B0000C2F200031A68FB6803F104031046194669
:103B1000FDF714FC7B69184607F11807BD4680BD08
:103B200080B58AB002AF76E0BB68002B73DB3B69DF
:103B3000FB61FB695B69002B05D0FB6903F10403A2
:103B40001846FDF735FC07F104031846FFF778FF28
:103B5000B861BB68092B5BD801A252F823F000BF03
:103B6000893B0008893B0008893B0008113C00089C
:103B7000DF3B0008093C0008893B0008893B00083E
:103B8000113C0008DF3B0008FA68FB699B69D2180A
:103B9000FB68F8691146BA69FFF778FF0346012B05
:103BA00038D1FB695B6AF8699847FB69DB69012BCF
:103BB00030D1FA68FB699B69D3184FF0000200927C
:103BC000F8694FF000011A464FF00003FFF72EFE90
:103BD00078617B69002B1DD1FDF770FDFEE7FA6867
:103BE000FB699A61FB699B69002B02D1FDF766FDB9
:103BF000FEE7FB699A69BB69D318F8691946BA6987
:103C0000BB69FFF743FF06E0F869FDF7CBFA02E076
:103C100000BF00E000BF48F6E853C2F200031A6894
:103C200007F10803104619464FF000024FF0000359
:103C3000FDF7ECFF0346002B7FF476AF07F120077A
:103C4000BD4680BD80B588B002AF4BE048F6E0537A
:103C5000C2F200031B68DB681B687B6148F6E05317
:103C6000C2F200031B68DB68DB683B613B6903F160
:103C700004031846FDF79CFB3B695B6A386998476B
:103C80003B69DB69012B2DD13B699A697B69D318AC
:103C9000FB60FA687B699A4212D93B69FA685A60FC
:103CA0003B693A691A6148F6E053C2F200031A68A8
:103CB0003B6903F1040310461946FDF73FFB11E091
:103CC0004FF00003009338694FF000017A694FF01C
:103CD0000003FFF7ABFDB860BB68002B02D1FDF716
:103CE000EDFCFEE748F6E053C2F200031B681B68D8
:103CF000002BABD148F6E053C2F200031B687B6097
:103D000048F6E453C2F200031A6848F6E053C2F2E0
:103D100000031A6048F6E453C2F200037A681A609E
:103D200007F11807BD4680BD80B500AFFDF77AFCEE
:103D300048F6E853C2F200031B68002B48D148F64E
:103D4000B850C2F20000FDF7A7FA48F6CC50C2F214
:103D50000000FDF7A1FA48F6E053C2F2000348F66E
:103D6000B852C2F200021A6048F6E453C2F20003ED
:103D700048F6CC52C2F200021A604FF00A004FF02F
:103D80000C014FF00002FDF7A5FD024648F6E8538E
:103D9000C2F200031A6048F6E853C2F200031B683F
:103DA000002B02D1FDF78AFCFEE748F6E853C2F289
:103DB00000031B68002B0BD048F6E853C2F2000347
:103DC0001B68184646F2B011C0F60001FEF7C4F9B0
:103DD000FDF750FC80BD00BF80B586B004AF7860B1
:103DE00048F6F453C2F200031B68002B0DD14FF0CC
:103DF00001004FF000014FF00302FDF76BFD02469A
:103E000048F6F453C2F200031A607B6800934FF047
:103E1000000301934FF0000302934FF0000303935C
:103E200043F64560C0F6000046F2B811C0F6000146
:103E30004FF0C8024FF00003FEF7F0F907F1080752
:103E4000BD4680BD80B582B000AF786048F6F453BF
:103E5000C2F200031B6818464FF000014FF0000249
:103E60004FF00003FDF7D2FE48F6F453C2F2000310
:103E70001B6818464FF000014FF0FF324FF000036F
:103E8000FDF7C4FE48F60463C2F200031B6803F1A9
:103E9000010248F60463C2F200031A6048F6F853C0
:103EA000C2F200031B6818464FF000014FF00002F9
:103EB0004FF00003FDF756FD48F68863C2F2000399
:103EC0001B681846FEF75EFB0346022B0AD048F635
:103ED0008863C2F200031B681846FEF753FB0346D3
:103EE000002B08D148F68863C2F200031B6818460D
:103EF000FEF7A2FB12E048F68863C2F200031B68DB
:103F00001846FEF73FFB0346032B07D148F68863AC
:103F1000C2F200031B681846FEF760FC4FF4FA700B
:103F2000FEF7DEFAA0E700BF80B400AF4FF4A05365
:103F3000C4F200034FF4A052C4F20002126922F04E
:103F400001021A6148F6F053C2F200034FF000027A
:103F50001A704FF4A053C4F200034FF000025A62EB
:103F60004FF4A053C4F200034FF4A052C4F2000275
:103F7000128892B222F0010292B21A80BD4680BC31
:103F8000704700BF80B483B000AF0346FB714FF4AD
:103F90006143CEF2000397F907204FEA5212F979F4
:103FA00001F01F014FF0010000FA01F143F8221067
:103FB00007F10C07BD4680BC704700BF80B483B0DA
:103FC00000AF03463960FB7197F90730002B10DA18
:103FD0004FF46D43CEF20003FA7902F00F02A2F122
:103FE00004013A68D2B24FEA0212D2B25B181A76D2
:103FF0000DE04FF46143CEF2000397F907103A68E1
:10400000D2B24FEA0212D2B25B1883F8002307F152
:104010000C07BD4680BC704780B489B000AFF86023
:10402000B9607A60FB6803F00703FB61FB69C3F1C9
:104030000703042B28BF0423BB61FB6903F10403BE
:10404000062B03D9FB69A3F1030301E04FF0000342
:104050007B61BB694FF0010202FA03F303F1FF3306
:104060001A46BB681A407B6902FA03F27B694FF07B
:10407000010101FA03F303F1FF3319467B680B409A
:104080001343184607F12407BD4680BC704700BFA4
:1040900080B582B002AF01F0E9FD4FF44070FCF74B
:1040A00051FC4FF48053C4F202034FF48052C4F227
:1040B0000202526942F408125A614FF48053C4F26A
:1040C00002034FF48052C4F20202926942F00102EC
:1040D0009A614FF0010300934FF48050C4F6000042
:1040E0004FF00001CCF60C414FF000024FF00203FC
:1040F000FCF710FF4FF090404FF003014FF000022B
:104100004FF00203FCF7B6FE4FF000004FF0000145
:10411000FCF758FE4FF48063C4F201034FF4806251
:10412000C4F20102126842F001021A604FF4806387
:10413000C4F201034FF48062C4F20102926842F0BB
:1041400001029A604FF440704FF00F014FF00F02E0
:10415000FFF762FF03464FF006001946FFF72EFFF8
:104160004FF00600FFF70EFF4FF48053C4F2020336
:104170004FF48052C4F20202526942F400225A61A2
:104180004FF40063C4F600034FF40062C4F600026B
:10419000126842F420621A604FF40063C4F6000310
:1041A0004FF40062C4F60002928892B242F010020C
:1041B00092B29A804FF40063C4F600034FF4006299
:1041C000C4F60002926842F440729A604FF40063B1
:1041D000C4F600034FF40062C4F60002D26822F471
:1041E0004072DA604FF40063C4F600034FF40062DB
:1041F000C4F60002126A42F4EE021A624FF48053CF
:10420000C4F202034FF48052C4F20202926942F4F3
:1042100080429A614FF46053C4F2010340F22B22B2
:104220009A814FF46053C4F201034FF46052C4F218
:104230000102126822F400421A604FF46053C4F283
:1042400001034FF46052C4F20102126842F480622A
:104250001A604FF46053C4F201034FF46052C4F289
:104260000102526842F480525A604FF46053C4F223
:1042700001034FF46052C4F20102126842F00802D6
:104280001A604FF46053C4F201034FF46052C4F259
:104290000102126842F004021A604FF46053C4F243
:1042A00001034FF46052C4F20102126842F00102AD
:1042B0001A604FF46053C4F201034FF46052C4F229
:1042C0000102126842F020021A604FF440704FF071
:1042D0000F014FF00F02FFF79FFE03464FF025003E
:1042E0001946FFF76BFE4FF02500FFF74BFE00F07D
:1042F00045F800F075F800F0A3F8BD4680BD00BF9A
:1043000080B483B000AF786039607B689B8A9BB2D1
:104310009AB23B684FF0010101FA03F39BB253409C
:104320009BB29AB27B689A8207F10C07BD4680BCAB
:10433000704700BF80B400AF4FF46053C4F2010374
:104340004FF46052C4F20102126842F080021A6017
:10435000BD4680BC704700BF80B400AF4FF46053CF
:10436000C4F201034FF46052C4F20102126822F059
:1043700080021A60BD4680BC704700BF80B584B023
:1043800000AF4FF000033B724FF040037B724FF0E1
:104390000703BB724FF00003BB734FF000033B7386
:1043A0004FF000037B734FF00803FB7207F1080323
:1043B000184601F003F84FF080033B714FF01003F3
:1043C0007B714FF00003BB714FF00003FB7107F1ED
:1043D0000403184601F034F807F11007BD4680BD0C
:1043E00080B584B000AF4FF008033B724FF000037C
:1043F0007B724FF00703BB724FF03003FB724FF03C
:1044000000033B734FF000037B734FF01003BB734B
:1044100007F10803184600F075FD4FF000033B71EB
:104420004FF000037B7107F10403184600F0ACFD68
:104430004FF0100000F0D2FD07F11007BD4680BD1F
:1044400080B582B000AF4FF000033B714FF0140312
:104450007B714FF0E003FB714FF00003BB7107F17C
:104460000403184601F020F807F10807BD4680BD97
:1044700080B400AF4FF000031846BD4680BC7047C3
:1044800080B400AF4FF000031846BD4680BC7047B3
:1044900080B586B004AF78607B68009348F6886387
:1044A000C2F2000301934FF0000302934FF00003A8
:1044B000039344F2D940C0F6000046F2C011C0F6A2
:1044C00000014FF0C8024FF00003FDF7A7FE07F10F
:1044D0000807BD4680BD00BF80B584B000AF7860DE
:1044E000FEF7E8FA0346FB604FF48050C4F6000084
:1044F0004FF00901FFF704FF40F20C03C2F2000382
:104500001B6807F10C0210461946FDF767FFEBE741
:1045100080B582B000AF78603960FFF7B9FD4FF029
:104520000100FFF7B5FF4FF00000FFF755FC4FF01B
:10453000020001F03BFB4FF0020001F043FD4FF0A1
:10454000030001F08DFC4FF0040000F01DF8FEF7B1
:10455000A1F9FEE780B400AFBD4680BC704700BF44
:1045600080B500AFFDF7AAF8FEE700BF80B400AF4A
:10457000BD4680BC704700BF80B582B000AF786098
:104580003960FDF79BF8FEE780B586B004AF786030
:104590007B68009348F68463C2F2000301934FF0F6
:1045A000000302934FF00003039344F2D150C0F68E
:1045B000000046F2CC11C0F600014FF0CA024FF0E5
:1045C0000003FDF72BFE07F10807BD4680BD00BFC5
:1045D00080B58CB000AF7860FEF76CFA0346FB62E2
:1045E00007F120034FF000021A6003F104034FF0BB
:1045F00000021A6003F104034FF000021A6003F195
:10460000040307F114034FF000021A6003F10403DE
:104610004FF000021A6003F104034FF000021A6029
:1046200003F1040307F108034FF000021A6003F1DD
:1046300004034FF000021A6003F104034FF000027C
:104640001A6003F1040307F12003184600F024F870
:1046500007F11403184600F027F907F1080318467C
:1046600000F0ECF93A6A48F65463C2F200031A60AB
:104670007A6A48F65463C2F200035A60BA6A48F68E
:104680005463C2F200039A6007F12C0318464FF0FE
:104690006401FDF7A3FEA3E780B58AB000AF7860A0
:1046A0004FF0000387F826304FF07E533B6207F14E
:1046B00014034FF032004FF023011A464FF002036B
:1046C00001F056F807F10C034FF032004FF02801CB
:1046D0001A464FF0060301F04BF87B7D03F04003D0
:1046E000002B04D04FF0400387F8273003E04FF051
:1046F000100387F827303B7D03F04003002B04D0E4
:104700007B7D03F04003002B36D04FF0000387F889
:1047100026302CE097F8263097F826204FEA420200
:1047200002F1010207F12800821812F81C2C4FEA4E
:10473000022292B211B297F826204FEA420207F104
:104740002800821812F81C2C891897F8272091FB52
:10475000F2F292B24FEA430307F12801CB1823F893
:10476000102C97F8263003F1010387F8263097F8CC
:104770002630022BCED935E04FF0000387F82630E3
:104780002CE097F8263097F826204FEA420207F1EE
:104790002800821812F81C2C4FEA022292B211B2A1
:1047A00097F826204FEA420202F1010207F12800A1
:1047B000821812F81C2C891897F8272091FBF2F226
:1047C00092B24FEA430307F12801CB1823F8102CCB
:1047D00097F8263003F1010387F8263097F8263042
:1047E000022BCED907F114034FF032004FF0230112
:1047F0001A464FF0020300F0BBFF7B7D03F040033D
:10480000002B03D04FF07A533B6220E03B7D03F056
:104810003003102B0DD0102B02DC002B05D016E03E
:10482000202B0AD0302B0CD011E04FF07E533B628E
:104830000DE04FF07C533B6209E04FF07A533B624E
:1048400005E04CF69F53C3F6AA533B6200BF4FF0FE
:10485000000387F826301FE097F826304FEA8303DD
:104860007A68D21897F826304FEA430307F12800F8
:10487000C31833F8103C1BB207EE903AB8EEE77A53
:10488000D7ED087AC7EE277AC2ED007A97F826307E
:1048900003F1010387F8263097F82630022BDBD985
:1048A00007F12807BD4680BD80B58AB000AF7860AB
:1048B0004FF00003BB614FF00003BB834FF00003D8
:1048C0003B614FF00003BB824FF00003FB734FF0DE
:1048D00000037B624FF000033B6207F10F031846B1
:1048E0004FF023014FF0010200F0D6FB07F118034F
:1048F00018464FF028014FF0060200F0CDFBFB7B7D
:1049000003F04003002B2BD14FF000033B6223E068
:104910003B6A4FEA430303F1010307F12801CB1877
:1049200013F8103C4FEA03239AB23B6A4FEA430361
:1049300007F12801CB1813F8103CD3189BB29AB298
:104940003B6A4FEA430307F12801CB1823F8182CE0
:104950003B6A03F101033B623B6A022BD8DD2AE08C
:104960004FF000033B6223E03B6A4FEA430307F149
:104970002802D31813F8103C4FEA03239AB23B6A7B
:104980004FEA430303F1010307F12801CB1813F8A1
:10499000103CD3189BB29AB23B6A4FEA430307F12B
:1049A0002801CB1823F8182C3B6A03F101033B6262
:1049B0003B6A022BD8DDFB7B03F03003102B09D0C0
:1049C000202B0DD0002B11D149F2EC13C4F2E423BB
:1049D0007B620BE049F25423C4F264237B6205E05E
:1049E00048F65C73C4F264137B6200BF4FF00003AF
:1049F0003B621BE03B6A4FEA83037A68D2183B6A4A
:104A00004FEA430307F12801CB1833F8183C1BB2D7
:104A100007EE903AB8EEE77AD7ED097AC7EE277A33
:104A2000C2ED007A3B6A03F101033B623B6A022B51
:104A3000E0DD07F12807BD4680BD00BF80B584B02A
:104A400000AF78604FF00003BB724FF00003FB81B2
:104A50004FF00003BB814FF00003FB7207F10A0324
:104A60004FF03C004FF001011A464FF0010300F0F7
:104A70007FFE4FF03C004FF0030148F60862C2F29F
:104A800000024FF0010300F073FE4FF03C004FF0C6
:104A90000401694A4FF0010300F06AFE4FF03C0048
:104AA0004FF00701654A4FF0010300F061FE4FF03F
:104AB0003C004FF00801624A4FF0010300F058FE3D
:104AC0004FF03C004FF005015E4A4FF0010300F04B
:104AD0004FFE4FF03C004FF006015B4A4FF00103E0
:104AE00000F046FEBB7A03F0E003802B24D0802B3D
:104AF00006DC402B12D0602B17D0202B07D037E0DC
:104B0000C02B27D0E02B2CD0A02B1CD030E040F2C3
:104B10004C43FB814FF47573BB8129E040F257335E
:104B2000FB814FF43E73BB8122E040F29E23FB8168
:104B30004FF41673BB811BE04FF4E173FB814FF41C
:104B4000C873BB8114E04FF4C873FB8140F2631358
:104B5000BB810DE04FF4A573FB8140F22713BB81AD
:104B600006E04FF0E603FB814FF0CD03BB8100BFB1
:104B70004FF00003FB7232E0FB7A4FEA83037A685E
:104B8000D218FB7A4FEA430148F60863C2F20003E9
:104B90005B5C4FEA032399B2FB7A4FEA430303F1CC
:104BA000010048F60863C2F200031B5CCB189BB2FD
:104BB0009BB21BB24FF47A7101FB03F306EE903AFD
:104BC000B8EEE67AFB8906EE903AF8EEE67AC7EEA2
:104BD000277AC2ED007AFB7A03F10103FB72FB7ABC
:104BE000012BC9D97B6803F1080248F60863C2F2B9
:104BF00000031B794FEA032399B248F60863C2F217
:104C000000035B79CB189BB29BB21BB24FF47A7155
:104C100001FB03F307EE903AB8EEE77ABB8906EEA4
:104C2000903AF8EEE67AC7EE277AC2ED007A07F1FD
:104C30001007BD4680BD00BF098E00200A8E0020EF
:104C40000B8E00200C8E00200D8E00200649074A96
:104C5000074B9A42BEBF51F8040B42F8040BF8E729
:104C600004488047044800473462000800000020E0
:104C7000840000206D5C0008DD0100082A492B4AF1
:104C8000002301E041F8043B9142FBD3FFF740FCD5
:104C9000FEE7FEE7FEE7FEE7FEE7FEE7FEE7FEE7EC
:104CA000FEE7FEE7FEE7FEE7FEE7FEE7FEE7FEE7DC
:104CB000FEE7FEE7FEE7FEE7FEE7FEE7FEE7FEE7CC
:104CC000FEE7FEE7FEE7FEE7FEE7FEE7FEE7FEE7BC
:104CD000FEE7FEE7FEE7FEE7FEE7FEE7FEE7FEE7AC
:104CE000FEE7FEE7FEE7FEE7FEE7FEE7FEE7FEE79C
:104CF000FEE7FEE7FEE7FEE7FEE7FEE7FEE7FEE78C
:104D0000FEE7FEE7FEE7FEE7FEE7FEE7FEE7FEE77B
:104D1000FEE7FEE7FEE7FEE7FEE7FEE7FEE7FEE76B
:104D2000FEE7FEE7FEE7FEE784000020CA8E0020D3
:104D300080B400AFBD4680BC704700BF80B400AFF8
:104D4000FEE700BF80B400AFFEE700BF80B400AF55
:104D5000FEE700BF80B400AFFEE700BF80B400AF45
:104D6000BD4680BC704700BF80B582B000AF4FF039
:104D700000037B604FF00000FBF7AEFB48F6F453F6
:104D8000C2F200031A6807F1040310464FF0000155
:104D90001A464FF00003FCF7BBFE7B68002B06D0E1
:104DA0004EF60453CEF200034FF080521A6007F122
:104DB0000807BD4680BD00BF80B582B000AF4FF090
:104DC00000037B604FF46053C4F20103DB6903F01E
:104DD0002003002B42D04FF46053C4F201034FF480
:104DE0006052C4F20102D26922F02002DA614FF46B
:104DF0006053C4F201039B8C9BB2DBB2FB7048F69C
:104E00008C63C2F20003196807F1030207F104037F
:104E1000084611461A464FF00003FCF779FEFB786E
:104E2000032B02D0FB782F2B0ED148F60063C2F281
:104E300000031A6807F1040310464FF000011A46F8
:104E40004FF00003FCF764FE7B68002B06D04EF6A3
:104E50000453CEF200034FF080521A604FF46053B7
:104E6000C4F20103DB6903F08003002B46D04FF44A
:104E70006053C4F201034FF46052C4F20102D269DC
:104E800022F08002DA6148F68063C2F200031B68F8
:104E90001846FDF729F90346012B14D048F6806324
:104EA000C2F20003196807F1020207F10403084681
:104EB00011461A46FCF798FF4FF46053C4F2010301
:104EC000BA781A8510E0FFF747FA48F6FC53C2F2A9
:104ED00000031A6807F1040310464FF000011A4658
:104EE0004FF00003FCF714FE7B68002B06D04EF653
:104EF0000453CEF200034FF080521A6007F1080706
:104F0000BD4680BD80B584B000AF78604FF000032F
:104F1000FB734FF00003BB7300F0FEF87B681A7858
:104F20007B685B781343DAB27B689B781343DAB211
:104F30007B68DB781343DAB2FB7B1343DBB2FB7392
:104F40007B681A797B685B791343DAB27B689B795B
:104F50001343DAB2BB7B1343DBB2BB7307F10F031E
:104F600018464FF020014FF0010200F05DF807F104
:104F70000E0318464FF023014FF0010200F054F8E1
:104F800007F11007BD4680BD80B584B000AF7860E2
:104F900007F10F0318464FF021014FF0010200F016
:104FA0007BF8FB7B23F03F03DBB2FB737B681A7853
:104FB0007B685B781343DAB2FB7B1343DBB2FB7392
:104FC00007F10F0318464FF021014FF0010200F0E6
:104FD0002BF807F11007BD4680BD00BF80B584B037
:104FE00000AF0346FB7107F10F0318464FF0240191
:104FF0004FF0010200F050F8FB7B23F01003DBB20E
:10500000FB73FA7BFB791343DBB2FB7307F10F03EE
:1050100018464FF024014FF0010200F005F807F1A7
:105020001007BD4680BD00BF80B582B000AF78607C
:1050300013460A46FA703B803B88012B03D9FB7864
:1050400043F04003FB704FF48050C4F600004FF073
:105050000801FBF713FBFB78184600F03FF90CE062
:105060007B681B78184600F039F93B8803F1FF3361
:105070003B807B6803F101037B603B88002BEFD111
:105080004FF48050C4F600004FF00801FBF7E8FA37
:1050900007F10807BD4680BD80B582B000AF7860DB
:1050A00013460A46FA703B803B88012B04D9FB78F3
:1050B00063F03F03FB7003E0FB7863F07F03FB705A
:1050C0004FF48050C4F600004FF00801FBF7D6FA09
:1050D000FB78184600F002F90FE04FF0000000F0F6
:1050E000FDF803461A467B681A703B8803F1FF33CC
:1050F0003B807B6803F101037B603B88002BECD194
:105100004FF48050C4F600004FF00801FBF7A8FAF6
:1051100007F10807BD4680BD80B588B000AF4FF4E9
:1051200080504FF00101FBF74BFC4FF400304FF083
:105130000101FBF71BFC4FF400104FF00101FBF7DE
:1051400015FC4FF400104FF00101FBF70FFC4FF47A
:1051500000104FF00101FBF709FC4FF090404FF0B9
:1051600005014FF00502FBF797FA4FF090404FF022
:1051700006014FF00502FBF78FFA4FF090404FF019
:1051800007014FF00502FBF787FA4FF002033B7768
:105190004FF00003BB774FF00003FB774FF00303A2
:1051A0007B774FF02003BB6107F118034FF090406D
:1051B0001946FBF7ADF94FF08003BB6107F1180307
:1051C0004FF090401946FBF7A3F94FF04003BB6145
:1051D00007F118034FF090401946FBF799F94FF487
:1051E0004050C4F20100FBF793FC4FF00003BB807A
:1051F0004FF4E0633B814FF000037B814FF00003ED
:10520000BB814FF40073FB814FF010033B824FF0E2
:1052100000037B824FF00703BB824FF48273FB8055
:1052200007F104034FF44050C4F201001946FBF7A4
:10523000B3FC4FF44050C4F201004FF48051FBF72F
:1052400057FD4FF44050C4F201004FF00101FBF74D
:105250002FFD4FF00803BB614FF001033B774FF088
:105260000003BB774FF003037B7707F118034FF47C
:105270008050C4F600001946FBF74AF94FF48050FD
:10528000C4F600004FF00801FBF7EAF94FF0010304
:10529000BB614FF000033B774FF00003BB774FF04B
:1052A00003037B774FF00003FB7707F118034FF4FC
:1052B0008050C4F600001946FBF72AF94FF00203AC
:1052C000BB6107F118034FF48050C4F60000194683
:1052D000FBF71EF907F12007BD4680BD80B582B0FF
:1052E00000AF0346FB7140F21003C2F200034FF41B
:1052F00080521A6017E040F21003C2F200031B68EC
:10530000002B14BF00220122D2B203F1FF3140F280
:105310001003C2F200031960002A04D0FFF7B0F8AE
:105320000346DBB244E04FF44050C4F201004FF0BA
:105330000201FBF727FD0346002BDCD0FB794FF47D
:105340004050C4F201001946FBF7EEFC40F2100396
:10535000C2F200034FF480521A6017E040F21003CB
:10536000C2F200031B68002B14BF00220122D2B23C
:1053700003F1FF3140F21003C2F200031960002A6A
:1053800004D0FFF77DF80346DBB211E04FF4405044
:10539000C4F201004FF00101FBF7F4FC0346002BBF
:1053A000DCD04FF44050C4F20100FBF7D5FC0346BB
:1053B000184607F10807BD4680BD00BF80B584B020
:1053C00000AF78604FF00003FB734FF00003BB7336
:1053D00000F004FB7B681A787B685B781343DAB2D1
:1053E0007B689B781343DAB2FB7B1343DBB2FB731E
:1053F0007B681A797B685B791343DAB27B689B79A7
:105400001343DAB27B68DB781343DAB2BB7B134316
:10541000DBB2BB7307F10F034FF032004FF02001F6
:105420001A4600F085F807F10E034FF032004FF0F6
:1054300023011A4600F07CF807F11007BD4680BD35
:1054400080B584B000AF786007F10F034FF03200F1
:105450004FF021011A464FF0010300F089F9FB7B60
:1054600003F00C03DBB2FB737B681A787B685B7814
:105470001343DAB27B689B781343DAB27B68DB783C
:105480001343DAB2FB7B1343DBB2FB7307F10F0369
:105490004FF032004FF021011A4600F049F807F1B1
:1054A0001007BD4680BD00BF80B584B000AF7860F6
:1054B0004FF00003FB734FF00003BB734FF000038A
:1054C0007B7300F08BFA7B681A787B685B781343F8
:1054D000DAB2FB7B1343DBB2FB737B68DA78BB7B0E
:1054E0001343DBB2BB737B689A787B7B1343DBB2DD
:1054F0007B7307F10F034FF03C004FF000011A4699
:1055000000F016F807F10E034FF03C004FF00101D8
:105510001A4600F00DF807F10D034FF03C004FF074
:1055200002011A4600F004F807F11007BD4680BDDD
:1055300080B584B002AF0B463A600246FA71BB7187
:1055400040F21403C2F200034FF420421A6017E045
:1055500040F21403C2F200031B68002B14BF0022A8
:105560000122D2B203F1FF3140F21403C2F2000370
:105570001960002A04D0FEF77BFF03469BB2F1E0DE
:105580004FF4A840C4F200004FF40041FBF7A8F923
:105590000346002BDCD1FB799BB24FF40052009202
:1055A0004FF4A840C4F2000019464FF001024FF03A
:1055B0008073FBF749F940F21403C2F200034FF481
:1055C00020421A6017E040F21403C2F200031B6885
:1055D000002B14BF00220122D2B203F1FF3140F2AE
:1055E0001403C2F200031960002A04D0FEF740FF42
:1055F00003469BB2B6E04FF4A840C4F200004FF05F
:105600000201FBF76DF90346002BDCD0BB794FF4A8
:10561000A840C4F200001946FBF746F940F2140313
:10562000C2F200034FF420421A6017E040F2140364
:10563000C2F200031B68002B14BF00220122D2B269
:1056400003F1FF3140F21403C2F200031960002A93
:1056500004D0FEF70DFF03469BB283E04FF4A84051
:10566000C4F200004FF08001FBF73AF90346002B2B
:10567000DCD0FB799BB24FF0000200924FF4A840BF
:10568000C4F2000019464FF001024FF00073FBF71F
:10569000DBF840F21403C2F200034FF420421A6018
:1056A00017E040F21403C2F200031B68002B14BF82
:1056B00000220122D2B203F1FF3140F21403C2F200
:1056C00000031960002A04D0FEF7D2FE03469BB205
:1056D00048E04FF4A840C4F200004FF00201FBF78D
:1056E000FFF80346002BDCD03B681B784FF4A84042
:1056F000C4F200001946FBF7D7F840F21403C2F2D7
:1057000000034FF420421A6017E040F21403C2F283
:1057100000031B68002B14BF00220122D2B203F148
:10572000FF3140F21403C2F200031960002A04D0D2
:10573000FEF79EFE03469BB214E04FF4A840C4F26D
:1057400000004FF02001FBF7CBF80346002BDCD024
:105750004FF4A840C4F200004FF02001FBF7E4F83A
:105760004FF00003184607F10807BD4680BD00BF93
:1057700080B584B002AF3A600246FA710A46BA7147
:10578000BB8040F21403C2F200034FF420421A60BF
:1057900017E040F21403C2F200031B68002B14BF91
:1057A00000220122D2B203F1FF3140F21403C2F20F
:1057B00000031960002A04D0FEF75AFE03469BB28C
:1057C00006E14FF4A840C4F200004FF40041FBF79B
:1057D00087F80346002BDCD1FB799BB24FF40052D3
:1057E00000924FF4A840C4F2000019464FF00102A5
:1057F0004FF00003FBF728F840F21403C2F2000355
:105800004FF420421A6017E040F21403C2F2000382
:105810001B68002B14BF00220122D2B203F1FF311A
:1058200040F21403C2F200031960002A04D0FEF70C
:105830001FFE03469BB2CBE04FF4A840C4F2000029
:105840004FF00201FBF74CF80346002BDCD0BB887D
:10585000012B03D9BB7963F07F03BB71BB794FF494
:10586000A840C4F200001946FBF71EF840F21403EA
:10587000C2F200034FF420421A6017E040F2140312
:10588000C2F200031B68002B14BF00220122D2B217
:1058900003F1FF3140F21403C2F200031960002A41
:1058A00004D0FEF7E5FD03469BB291E04FF4A8401B
:1058B000C4F200004FF04001FBF712F80346002B42
:1058C000DCD0FB799AB2BB88DBB24FF41051009167
:1058D0004FF4A840C4F2000011461A464FF000737E
:1058E000FAF7B2FF3CE040F21403C2F200034FF4B7
:1058F00020421A6017E040F21403C2F200031B6852
:10590000002B14BF00220122D2B203F1FF3140F27A
:105910001403C2F200031960002A04D0FEF7A8FDA8
:1059200003469BB254E04FF4A840C4F200004FF08D
:105930000401FAF7D5FF0346002BDCD04FF4A84052
:10594000C4F20000FAF7BEFF03461A463B681A701D
:105950003B6803F101033B60BB8803F1FF33BB806D
:10596000BB88002BBFD140F21403C2F200034FF4F6
:1059700020421A6017E040F21403C2F200031B68D1
:10598000002B14BF00220122D2B203F1FF3140F2FA
:105990001403C2F200031960002A04D0FEF768FD68
:1059A00003469BB214E04FF4A840C4F200004FF04D
:1059B0002001FAF795FF0346002BDCD04FF4A840F6
:1059C000C4F200004FF02001FAF7AEFF4FF00003E1
:1059D000184607F10807BD4680BD00BF80B58CB0F2
:1059E00000AF4FF400104FF00101FBF713F84FF434
:1059F00080204FF00101FAF7B9FF4FF400104FF08B
:105A00000101FAF7B3FF4FF400104FF00101FAF76C
:105A1000ADFF4FF400104FF00101FAF7A7FF4FF46C
:105A20008060C4F600004FF006014FF00402FAF760
:105A300033FE4FF48060C4F600004FF007014FF0D2
:105A40000402FAF729FE4FF0020387F82C304FF0DA
:105A5000000387F82E304FF0020387F82F304FF005
:105A6000030387F82D304FF04003BB6207F1280392
:105A70004FF48060C4F600001946FAF749FD4FF074
:105A80008003BB6207F128034FF48060C4F6000076
:105A90001946FAF73DFD4FF0000387F82C304FF020
:105AA000000387F82E304FF0000387F82F304FF0B7
:105AB000030387F82D304FF00403BB6207F128037E
:105AC0004FF48050C4F600001946FAF721FD4FF05C
:105AD00004004FF00201FBF775F94FF002033B623F
