:020000040800F2
:1000000000A00020994D00087D4E0008894E000890
:10001000914E0008994E0008A14E00080000000013
:10002000000000000000000000000000B111000806
:10003000A94E000800000000ED1300084514000858
:10004000F14D0008F34D0008F54D0008F74D00088C
:10005000F94D0008FB4D0008B54E0008FF4D0008A3
:10006000014E0008034E0008054E0008074E000828
:10007000094E00080B4E00080D4E00080F4E0008F8
:10008000114E0008134E0008154E0008174E0008C8
:10009000194E00081B4E00081D4E00081F4E000898
:1000A000214E0008234E0008254E0008274E000868
:1000B000294E00082B4E00082D4E00082F4E000838
:1000C000314E0008334E0008354E0008374E000808
:1000D000394E0008054F00083D4E00083F4E00080D
:1000E000414E0008434E0008454E0008474E0008A8
:1000F000494E00084B4E00084D4E00084F4E000878
:10010000000000000000000000000000514E000848
:10011000534E0008554E0008574E0008BD3B0008DE
:100120005B4E00085D4E00085F4E0008614E0008FF
:10013000634E0008654E000800000000000000004B
:10014000674E0008694E00086B4E00080000000072
:10015000000000000000000000000000000000009F
:1001600000000000000000006D4E00086F4E000807
:10017000714E0008000000000000000000000000B8
:1001800000000000734E000810B5054C237833B909
:10019000044B13B10448AFF300800123237010BD5A
:1001A0007C000020000000005856000808B5064BEF
:1001B0001BB106480649AFF300800648036813B137
:1001C000054B03B1984708BD0000000058560008D1
:1001D000800000207C00002000000000154B002B58
:1001E00008BF134B9D46A3F5803A00218B460F466E
:1001F0001348144A121A05F0E0F90F4B002B00D0F7
:1002000098470E4B002B00D0984700200021040097
:100210000D000D48002802D00C48AFF3008005F017
:100220008DF92000290004F00DFD05F073F900BFE1
:100230000000080000A000200000000000000000F6
:100240007C000020A98E00200000000000000000BB
:1002500080B483B000AF78607B684FEA53134FEAF5
:10026000431240F21443C4F20103D3187A6802F037
:100270001F024FF0010101FA02F21A6007F10C07A8
:10028000BD4680BC704700BF80B487B000AF7860C7
:1002900039604FF000037B614FF000033B614FF08A
:1002A0000003FB604FF000037B618CE07B694FF043
:1002B000010202FA03F33B613B681A683B69134091
:1002C000FB60FA683B699A4279D13B681B79012B44
:1002D00003D03B681B79022B3AD17B689A687B6913
:1002E0004FEA43034FF0030101FA03F36FEA0303FC
:1002F0001A407B689A607B689A683B685B7919460C
:100300007B694FEA430301FA03F31A437B689A605F
:100310007B689B889AB27B699BB24FF0010101FA1E
:1003200003F39BB26FEA03039BB213409AB27B685C
:100330009A807B689B889AB23B689B7919467B6957
:100340009BB201FA03F39BB213439AB27B689A8083
:100350007B681A687B694FEA43034FF0030101FA97
:1003600003F36FEA03031A407B681A607B681A681C
:100370003B681B7919467B694FEA430301FA03F393
:100380001A437B681A607B68DA687B699BB24FEA24
:1003900043034FF0030101FA03F36FEA03031A402A
:1003A0007B68DA607B68DA683B68DB7919467B69D1
:1003B0004FEA430301FA03F31A437B68DA607B696F
:1003C00003F101037B617B690F2B7FF66FAF07F1B0
:1003D0001C07BD4680BC704780B483B000AF786016
:1003E0000B467B807A887B689A6107F10C07BD46D3
:1003F00080BC704780B483B000AF78600B467B80D0
:100400007B687A881A8507F10C07BD4680BC704767
:1004100080B485B000AF786013460A467A807B705E
:100420004FF00003FB604FF00003BB607A787B88DD
:1004300003F007034FEA830302FA03F3FB607B88B0
:100440004FEAD3039BB21A467B884FEAD3039BB291
:1004500019467B6801F1080153F821107B8803F0ED
:1004600007034FEA83034FF00F0000FA03F36FEA2C
:10047000030319407B6802F1080243F822107B88CD
:100480004FEAD3039BB21A467B6802F1080253F885
:100490002220FB681343BB607B884FEAD3039BB2E7
:1004A0001A467B6802F10802B96843F8221007F186
:1004B0001407BD4680BC704780B485B000AF78603B
:1004C00039604FF00003FB607B681B6823F001027A
:1004D0007B681A607B681B68FB60FA684EF2FF035A
:1004E000C0F2CF031340FB603B685A683B689B68CF
:1004F0004FEA03231343FA681343FB607B68FA68EF
:100500001A603B681B6823F070627B681A617B6825
:100510001B6843F001027B681A604FF00003FB6028
:100520007B68FA689A607B68FA68DA603B689A6967
:100530003B681B691343FB607B68FA689A607B68C1
:100540009B6843F400427B689A603B68DB68FB6011
:100550007B681A68FB681A437B681A607B685B6873
:10056000FB60FB6823F0784323F40043FB603B68A7
:100570005B69FA681343FB607B68FA685A6007F1AD
:100580001407BD4680BC704780B483B000AF78606C
:100590000B46FB70FB78002B06D07B681B6843F092
:1005A00001027B681A6005E07B681B6823F001028A
:1005B0007B681A6007F10C07BD4680BC704700BF1E
:1005C00080B487B000AFF8607B600B467B81134638
:1005D0007B724FF000037B61FB685B687B617A692B
:1005E0004FF41843CFF6004313407B617B894FEAF9
:1005F00083534FEA93537A7A4FEA024202F47F021E
:100600001A437B681A433B6A13437A6913437B613D
:10061000FB687A695A6007F11C07BD4680BC7047C9
:1006200080B483B000AF78600B46FB70FA787B68CB
:100630009A6207F10C07BD4680BC704780B483B056
:1006400000AF78607B685B6ADBB2184607F10C0785
:10065000BD4680BC704700BF80B483B000AF7860F7
:100660004FF46D43CEF200037A6842F0BF6242F469
:100670000032DA6007F10C07BD4680BC704700BF4E
:1006800080B483B000AF78600B46FB70FB78002B22
:100690000CD04FF48053C4F202034FF48052C4F2E2
:1006A000020251697A680A435A610DE04FF480539F
:1006B000C4F202034FF48052C4F2020251697A6814
:1006C0006FEA02020A405A6107F10C07BD4680BC7E
:1006D000704700BF80B483B000AF78600B46FB70FA
:1006E000FB78002B0CD04FF48053C4F202034FF47C
:1006F0008052C4F2020291697A680A439A610DE05D
:100700004FF48053C4F202034FF48052C4F2020249
:1007100091697A686FEA02020A409A6107F10C0750
:10072000BD4680BC704700BF80B483B000AF786026
:100730000B46FB70FB78002B0CD04FF48053C4F2B7
:1007400002034FF48052C4F20202D1697A680A436C
:10075000DA610DE04FF48053C4F202034FF480528B
:10076000C4F20202D1697A686FEA02020A40DA61D1
:1007700007F10C07BD4680BC704700BF80B483B052
:1007800000AF78600B46FB70FB78002B0CD04FF469
:100790008053C4F202034FF48052C4F20202D168C3
:1007A0007A680A43DA600DE04FF48053C4F2020322
:1007B0004FF48052C4F20202D1687A686FEA0202F2
:1007C0000A40DA6007F10C07BD4680BC704700BFE5
:1007D00080B483B000AF78600B46FB70FB78002BD1
:1007E0000CD04FF48053C4F202034FF48052C4F291
:1007F000020211697A680A431A610DE04FF48053CE
:10080000C4F202034FF48052C4F2020211697A6802
:100810006FEA02020A401A6107F10C07BD4680BC6C
:10082000704700BF80B582B000AF78607A684FF43F
:100830004053C4F201039A420CD14FF480504FF060
:100840000101FFF79BFF4FF480504FF00001FFF7CD
:1008500095FF26E07A684FF46053C4F200039A4291
:100860000CD14FF480404FF00101FFF7B1FF4FF47E
:1008700080404FF00001FFF7ABFF12E07A684FF4C1
:100880007053C4F200039A420BD14FF400404FF072
:100890000101FFF79DFF4FF400404FF00001FFF70B
:1008A00097FF07F10807BD4680BD00BF80B485B043
:1008B00000AF786039604FF00003FB813B685B88D4
:1008C000B3F5827F36D17B681B88FB81FB8903F4FB
:1008D0004153FB813B681A883B685B8813439AB29B
:1008E0003B68D9883B681B890B4399B23B685889A0
:1008F0003B689B89034398B23B68DB8903439BB207
:100900000B439BB213439AB2FB891343FB817B6871
:10091000FA891A807B689B88FB81FB8923F47063CA
:10092000FB813B689A88FB891343FB817B68FA89CA
:100930009A8035E07B689B88FB81FB8923F4706398
:10094000FB813B689A88FB891343FB817B68FA89AA
:100950009A807B681B88FB81FB8903F44153FB81F0
:100960003B681A883B685B8813439AB23B68D98816
:100970003B681B890B4399B23B6858893B689B894C
:10098000034398B23B68DB8903439BB20B439BB2A2
:1009900013439AB2FB891343FB817B68FA891A805F
:1009A0007B689B8B9BB223F400639AB27B689A832B
:1009B0003B681A8A7B681A8207F11407BD4680BC1F
:1009C000704700BF80B483B000AF78600B46FB7007
:1009D000FB78002B08D07B681B889BB243F0400358
:1009E0009AB27B681A8007E07B681B889BB223F071
:1009F00040039AB27B681A8007F10C07BD4680BCA1
:100A0000704700BF80B483B000AF78600B467B8036
:100A10007B689B889BB223F480539AB27B689A8050
:100A20007B689B889AB27B8813439AB27B689A80D2
:100A300007F10C07BD4680BC704700BF80B485B08D
:100A400000AF78600B46FB704FF00003FB607B68E3
:100A5000FB60FB6803F10C03FB60FB68FA781A701B
:100A600007F11407BD4680BC704700BF80B485B055
:100A700000AF78604FF00003FB607B68FB60FB68B1
:100A800003F10C03FB60FB681B78DBB2184607F12F
:100A90001407BD4680BC704780B485B000AF786055
:100AA0000B467B804FF00003FB737B681B899AB277
:100AB0007B8813409BB2002B03D04FF00103FB73E4
:100AC00002E04FF00003FB73FB7B184607F11407AD
:100AD000BD4680BC704700BF90B484B000AF0246F2
:100AE0000B46FA71BB714FF00003FB60BB7903F05A
:100AF00003034FEA83034FF00F0202FA03F3FB6094
:100B00004FF00003C4F20103BA794FEA9202D2B265
:100B100010464FF00002C4F20102B9794FEA910188
:100B2000C9B201F1020152F82110FA686FEA02021B
:100B3000114000F1020243F822104FF00003C4F20A
:100B40000103BA794FEA9202D2B210464FF0000286
:100B5000C4F20102B9794FEA9101C9B201F102016F
:100B600052F82110FC79BA7902F003024FEA8202AE
:100B700004FA02F2114300F1020243F8221007F1D5
:100B80001007BD4690BC704780B485B000AFF860D8
:100B9000B960FA71BB71FB681A68BB686FEA03033E
:100BA0001A40FB681A60FB689A68BB686FEA030327
:100BB0001A40FB689A60FB79002B06D1FB689A68A3
:100BC000BB681A43FB689A600AE0FB79012B07D1E6
:100BD000FB689A68BB6803F055331A43FB689A6058
:100BE000FB68DA68BB686FEA03031A40FB68DA60E7
:100BF000BB79002B08D1FB68DA68BB6803F055337A
:100C00001A43FB68DA600AE0BB79012B07D1FB6865
:100C1000DA68BB6803F0CC331A43FB68DA6007F18B
:100C20001407BD4680BC704780B489B000AFF8603F
:100C3000B960FA71BB714FF00003FB834FF0010301
:100C4000BB614FF000033B614FF00003FB7513E005
:100C5000BA68BB6913403B613B69002B04D0FB7D44
:100C60003A6922FA03F3FB83BB694FEA8303BB6152
:100C7000FB7D03F10103FB75FB7D0F2BE8D9FB68BE
:100C80001A68BB686FEA03031A40FB681A60FB68C6
:100C90001A68BB6803F055331A43FB681A60FB6897
:100CA0009A68BB686FEA03031A40FB689A60FB7995
:100CB000002B06D1FB689A68BB681A43FB689A60F0
:100CC0000AE0FB79012B07D1FB689A68BB6803F047
:100CD00055331A43FB689A60FB68DA68BB686FEAB1
:100CE00003031A40FB68DA60BB79002B08D1FB686C
:100CF000DA68BB6803F055331A43FB68DA600AE030
:100D0000BB79012B07D1FB68DA68BB6803F0CC33F1
:100D10001A43FB68DA6097F82830002B08D1FB688B
:100D20009B889AB2FB8B13439AB2FB689A800CE0C3
:100D3000FB689B889BB29AB2FB8B6FEA03039BB262
:100D400013409BB29AB2FB689A8007F12407BD4614
:100D500080BC704780B588B000AF78604FF000036A
:100D60007B6101F025FC48F6A843C2F200031B6832
:100D7000002B08D100F0E4F848F6A843C2F20003C3
:100D80004FF001021A607B68002B12D045F2E85345
:100D9000C0F600031B887A68D3187B607B6803F079
:100DA0000703002B05D07B6823F0070303F108033A
:100DB0007B607B68002B72D07A6848F6F7339A42E2
:100DC0006DD848F69843C2F20003BB6148F69843D9
:100DD000C2F200031B68FB6104E0FB69BB61FB69B5
:100DE0001B68FB61FB695A687B689A4203D2FB6906
:100DF0001B68002BF1D1FA6948F6A043C2F2000348
:100E00009A424CD0BB691A6845F2E853C0F6000319
:100E10001B88D3187B61FB691A68BB691A60FB6980
:100E20005A687B68D21A45F2E853C0F600031B8863
:100E30004FEA43039A4225D9FA697B68D318FB60CD
:100E4000FB695A687B68D21AFB685A60FB697A684A
:100E50005A60FB685B68BB6048F69843C2F20003C7
:100E60003B6102E03B691B683B613B691B685A6858
:100E7000BB689A42F6D33B691A68FB681A603B6903
:100E8000FA681A6040F20003C2F200031A68FB69B4
:100E90005B68D21A40F20003C2F200031A6001F04C
:100EA00099FB7B69002B01D103F0F0FE7B691846AA
:100EB00007F12007BD4680BD80B586B000AF7860E1
:100EC0007B683B617B68002B35D045F2E853C0F668
:100ED00000031B88C3F100033A69D3183B613B69E7
:100EE000FB6001F065FBFB685B68BB6048F69843FC
:100EF000C2F200037B6102E07B691B687B617B6956
:100F00001B685A68BB689A42F6D37B691A68FB680B
:100F10001A607B69FA681A60FB685A6840F200033D
:100F2000C2F200031B68D21840F20003C2F20003B1
:100F30001A6001F04FFB07F11807BD4680BD00BFE6
:100F400080B483B000AF184B23F007037B6048F6F2
:100F50009843C2F200037A681A6048F69843C2F2D6
:100F600000034FF000025A6048F6A043C2F20003AB
:100F700048F6F8325A6048F6A043C2F200034FF038
:100F800000021A607B683B603B6848F6F8325A60A2
:100F90003A6848F6A043C2F20003136007F10C0759
:100FA000BD4680BC704700BFA000002080B483B065
:100FB00000AF78607B6803F108027B685A607B6849
:100FC0004FF0FF329A607B6803F108027B68DA60B9
:100FD0007B6803F108027B681A617B684FF00002AE
:100FE0001A6007F10C07BD4680BC704780B483B01F
:100FF00000AF78607B684FF000021A6107F10C07C0
:10100000BD4680BC704700BF80B485B000AF78603B
:1010100039607B685B68FB603B68FA685A60FB6814
:101020009A683B689A60FB689B683A685A60FB68FC
:101030003A689A603B687A681A617B681B6803F1BA
:1010400001027B681A6007F11407BD4680BC704737
:1010500080B485B000AF786039603B681B68BB60C6
:10106000BB68B3F1FF3F03D17B681B69FB600DE0F8
:101070007B6803F10803FB6002E0FB685B68FB60D0
:10108000FB685B681A68BB689A42F6D9FB685A68C5
:101090003B685A603B685B683A689A603B68FA68EC
:1010A0009A60FB683A685A603B687A681A617B68A4
:1010B0001B6803F101027B681A6007F11407BD4643
:1010C00080BC704780B485B000AF78607B681B69D6
:1010D000FB607B685B687A6892689A607B689B6853
:1010E0007A6852685A60FB685A687B689A4203D1F2
:1010F0007B689A68FB685A607B684FF000021A614F
:10110000FB681B6803F1FF32FB681A60FB681B6811
:10111000184607F11407BD4680BC704780B485B0FF
:1011200000AFF860B9607A60FB68A3F10403FB606C
:10113000FB684FF080721A60FB68A3F10403FB6048
:10114000BA68FB681A60FB68A3F10403FB6041F214
:101150009113C0F60003FA681360FB68A3F114034F
:10116000FB607A68FB681A60FB68A3F10403FB600C
:10117000FB686FF002021A60FB68A3F12003FB60BA
:10118000FB68184607F11407BD4680BC704700BFD6
:1011900080B500AF40F20403C2F200031B68B3F154
:1011A000FF3F02D000F014F9FEE700F011F9FEE76E
:1011B000064B19680868B0E8F04F80F30988BFF360
:1011C0006F8F4FF0000080F311887047B48C0020BF
:1011D00006480068006880F3088862B661B6BFF30D
:1011E0004F8FBFF36F8F00DF00BF000008ED00E0FE
:1011F00080B584B000AF4FF46443CEF20003FB60CF
:10120000FB681B78DBB2BB60FB684FF0FF021A7013
:10121000FB681B78DBB2FB71FB79DBB203F0500398
:10122000DAB248F6AC43C2F200031A7048F6B04393
:10123000C2F200034FF007021A6011E048F6B04313
:10124000C2F200031B6803F1FF3248F6B043C2F25A
:1012500000031A60FB79DBB24FEA4303DBB2FB7198
:10126000FB79DBB2DBB25BB2002BE7DB48F6B043C5
:10127000C2F200031B684FEA032248F6B043C2F2F1
:1012800000031A6048F6B043C2F200031B6803F47F
:10129000E06248F6B043C2F200031A60BB68DAB2FB
:1012A000FB681A704EF62053CEF200034EF6205221
:1012B000CEF20002126842F470021A604EF6205319
:1012C000CEF200034EF62052CEF20002126842F037
:1012D00070421A6000F0CCF840F20403C2F200033E
:1012E0004FF000021A6000F0E3F84EF63473CEF2CD
:1012F00000034EF63472CEF20002126842F0404211
:101300001A60FFF765FFFFF743FF4FF00003184631
:1013100007F11007BD4680BD80B400AF4EF6045300
:10132000CEF200034FF080521A60BFF34F8FBFF32D
:101330006F8FBD4680BC704780B500AF00F048F8A5
:1013400040F20403C2F200031B6803F1010240F201
:101350000403C2F200031A60BFF34F8FBFF36F8F15
:1013600040F20403C2F200031B68012B0BD14EF6BE
:101370000453CEF200031B6803F01F03002B02D0BE
:1013800000F026F8FEE780BD80B500AF40F2040310
:10139000C2F200031B68002B02D100F019F8FEE72F
:1013A00040F20403C2F200031B6803F1FF3240F273
:1013B0000403C2F200031A6040F20403C2F2000305
:1013C0001B68002B03D14FF0000000F00BF880BD2C
:1013D000EFF311804FF0500181F3118870474FF007
:1013E0000003184680F31188704700BFEFF30980AF
:1013F000BFF36F8F124B1A681EF0100F08BF20ED5D
:10140000108A20E9F04F10604DF8043D4FF0500075
:1014100080F3118801F0B8FA4FF0000080F31188D2
:1014200008BC19680868B0E8F04F1EF0100F08BF3C
:10143000B0EC108A80F30988BFF36F8F704700BF4C
:10144000B48C002080B500AFFFF7C2FF01F090F927
:101450000346002B06D04EF60453CEF200034FF0A5
:1014600080521A604FF00000FFF7BCFF80BD00BF44
:1014700080B400AF4EF21403CEF2000340F210022B
:10148000C2F20002116844F6D352C1F26202A2FB1A
:1014900001024FEA921202F1FF321A604EF210037B
:1014A000CEF200034FF007021A60BD4680BC7047C1
:1014B000DFF80C00016841F4700101607047000022
:1014C00088ED00E090B583B000AFEFF305847C6059
:1014D0007B680F2B13D945F2EC53C0F600031A6852
:1014E0007B68D3181B78FB7048F6AC43C2F200034C
:1014F0001B78FA789A4202D2FFF76AFFFEE74EF6AF
:101500000C53CEF200031B6803F4E06248F6B043CC
:10151000C2F200031B689A4202D9FFF759FFFEE7A7
:1015200007F10C07BD4690BD80B584B000AF786070
:1015300039607B68FB60FB68002B02D1FFF748FF36
:10154000FEE7FFF7F9FEFB681A68FB68DB6BF968DA
:10155000096C01FB03F3D218FB685A60FB684FF07B
:1015600000029A63FB681A68FB689A60FB681A6855
:10157000FB68DB6B03F1FF33F968096C01FB03F3D4
:10158000D218FB68DA60FB684FF0FF325A64FB68E0
:101590004FF0FF329A643B68002B0FD1FB681B6948
:1015A000002B17D0FB6803F11003184601F036FB3F
:1015B0000346012B0ED1FFF7AFFE0BE0FB6803F1F2
:1015C00010031846FFF7F2FCFB6803F124031846EA
:1015D000FFF7ECFCFFF7D8FE4FF00103184607F1C8
:1015E0001007BD4680BD00BF80B588B000AFF86071
:1015F000B9601346FB714FF00003FB61FB68002BE1
:101600002DD04FF05400FFF7A5FBB861BB69002B4C
:1016100025D0FB68BA6802FB03F303F101037B6189
:101620007869FFF797FB0246BB691A60BB691B68C4
:10163000002B11D0BB69FA68DA63BB69BA681A6417
:10164000B8694FF00101FFF76FFFBB69FA7983F8C2
:101650005020BB69FB6102E0B869FFF72DFCFB6914
:10166000002B02D1FFF7B4FEFEE7FB69184607F135
:101670002007BD4680BD00BF80B584B000AF0346E3
:10168000FB714FF05400FFF765FBF860FB68002B1F
:101690003CD0FB684FF000025A60FB684FF000023C
:1016A0001A60FB684FF000029A60FB684FF000027E
:1016B000DA60FB684FF000029A63FB684FF00102AA
:1016C000DA63FB684FF000021A64FB684FF0FF32E8
:1016D0005A64FB684FF0FF329A64FB68FA7983F82A
:1016E0005020FB6803F110031846FFF75FFCFB680E
:1016F00003F124031846FFF759FCF8684FF0000186
:101700004FF000024FF0000300F00CF8FB68002BD4
:1017100002D1FFF75DFEFEE7FB68184607F11007F0
:10172000BD4680BD80B58AB000AFF860B9607A6010
:101730003B604FF000037B62FB683B623B6A002B1F
:1017400002D1FFF745FEFEE7BB68002B03D13B6AE1
:101750001B6C002B02D14FF0010301E04FF000039E
:10176000002B02D1FFF734FEFEE73B68022B03D1CA
:101770003B6ADB6B012B02D14FF0010301E04FF01C
:101780000003002B02D1FFF723FEFEE701F0F8FC77
:101790000346002B02D17B68002B02D14FF00103DE
:1017A00001E04FF00003002B03D1FFF711FEFEE72D
:1017B00000BFFFF7C1FD3B6A9A6B3B6ADB6B9A4245
:1017C00002D33B68022B1FD1386AB9683A6800F02F
:1017D000EBF9F8613B6A5B6A002B0BD03B6A03F1C3
:1017E0002403184601F01AFA0346012B07D1FFF72C
:1017F00093FD04E0FB69002B01D0FFF78DFDFFF79F
:10180000C3FD4FF001035DE07B68002B04D1FFF7BF
:10181000BBFD4FF0000355E07B6A002B07D107F1B9
:101820001403184601F06AFA4FF001037B62FFF7D8
:10183000ABFD00F0BDFEFFF77FFD3B6A5B6CB3F1D3
:10184000FF3F03D13B6A4FF000025A643B6A9B6C36
:10185000B3F1FF3F03D13B6A4FF000029A64FFF7F8
:1018600093FD07F1140207F104031046194601F035
:1018700061FA0346002B1ED1386A00F09BFA03463A
:10188000002B12D03B6A03F110027B681046194608
:1018900001F01EF9386A00F023FA00F09BFE0346BF
:1018A000002B85D1FFF738FD82E7386A00F018FA7F
:1018B00000F090FE7CE7386A00F012FA00F08AFE31
:1018C0004FF00003184607F12807BD4680BD00BF52
:1018D00080B588B000AFF860B9607A603B60FB68A3
:1018E000BB61BB69002B02D1FFF772FDFEE7BB684D
:1018F000002B03D1BB691B6C002B02D14FF00103FD
:1019000001E04FF00003002B02D1FFF761FDFEE77D
:101910003B68022B03D1BB69DB6B012B02D14FF07B
:10192000010301E04FF00003002B02D1FFF750FD4F
:10193000FEE7FFF7C7FDFFF74BFD7861BB699A6BC8
:10194000BB69DB6B9A4202D33B68022B32D1B86988
:10195000B9683A6800F028F90346002B06D07B6886
:10196000002B03D07B684FF001021A60BB699B6CAF
:10197000B3F1FF3F14D1BB695B6A002B16D0BB6982
:1019800003F12403184601F049F90346002B0DD05A
:101990007B68002B0AD07B684FF001021A6005E0DB
:1019A000BB699B6C03F10102BB699A644FF00103B0
:1019B000FB6102E04FF00003FB617869FFF712FD65
:1019C000FB69184607F12007BD4680BD80B58AB087
:1019D00000AFF860B9607A603B604FF000037B6253
:1019E000FB683B623B6A002B02D1FFF7F1FCFEE78C
:1019F000BB68002B03D13B6A1B6C002B02D14FF05C
:101A0000010301E04FF00003002B02D1FFF7E0FCDF
:101A1000FEE701F0B5FB0346002B02D17B68002BEB
:101A200002D14FF0010301E04FF00003002B03D17E
:101A3000FFF7CEFCFEE700BFFFF77EFC3B6A9B6B27
:101A4000002B3FD03B6ADB68FB61386AB96800F065
:101A50001FF93B68002B1ED13B6A9B6B03F1FF32E1
:101A60003B6A9A633B6A1B68002B04D101F0D6FCE9
:101A700002463B6A5A603B6A1B69002B1DD03B6AD9
:101A800003F11003184601F0C9F80346012B14D1E5
:101A9000FFF742FC11E03B6AFA69DA603B6A5B6A75
:101AA000002B0AD03B6A03F12403184601F0B6F874
:101AB0000346002B01D0FFF72FFCFFF765FC4FF02A
:101AC00001036BE07B68002B04D1FFF75DFC4FF056
:101AD000000363E07B6A002B07D107F1140318466B
:101AE00001F00CF94FF001037B62FFF74DFC00F0B1
:101AF0005FFDFFF721FC3B6A5B6CB3F1FF3F03D155
:101B00003B6A4FF000025A643B6A9B6CB3F1FF3FA3
:101B100003D13B6A4FF000029A64FFF735FC07F1EE
:101B2000140207F104031046194601F003F90346B5
:101B3000002B2CD1386A00F023F90346002B20D06B
:101B40003B6A1B68002B08D1FFF7F6FB3B6A5B681A
:101B5000184601F039FBFFF717FC3B6A03F124023A
:101B60007B681046194600F0B3FF386A00F0B8F8F9
:101B700000F030FD0346002B7FF45DAFFFF7CCFB98
:101B800059E7386A00F0ACF800F024FD53E7386AF2
:101B900000F0A6F800F01EFD4FF00003184607F114
:101BA0002807BD4680BD00BF80B586B000AFF86095
:101BB000B9607A604FF000037B61FB681B6C002BFF
:101BC0000ED1FB681B68002B56D1FB685B6818467A
:101BD00001F09CFB7861FB684FF000025A604BE01B
:101BE0007B68002B1AD1FB689A68FB681B6C104657
:101BF000B9681A4603F0D8FCFB689A68FB681B6C4E
:101C0000D218FB689A60FB689A68FB685B689A4226
:101C100032D3FB681A68FB689A602DE0FB68DA68CB
:101C2000FB681B6C1046B9681A4603F0BDFCFB68E4
:101C3000DA68FB681B6CC3F10003D218FB68DA603A
:101C4000FB68DA68FB681B689A4208D2FB685A682E
:101C5000FB681B6CC3F10003D218FB68DA607B6879
:101C6000022B09D1FB689B6B002B05D0FB689B6B9B
:101C700003F1FF32FB689A63FB689B6B03F101027F
:101C8000FB689A637B69184607F11807BD4680BD5B
:101C900080B582B000AF786039607B681B6C002B28
:101CA00019D07B68DA687B681B6CD2187B68DA60B5
:101CB0007B68DA687B685B689A4203D37B681A6842
:101CC0007B68DA607B68DA687B681B6C3868114671
:101CD0001A4603F069FC07F10807BD4680BD00BF46
:101CE00080B582B000AF7860FFF726FB14E07B6818
:101CF0005B6A002B15D07B6803F12403184600F0C3
:101D00008DFF0346002B01D001F06CF87B689B6CC3
:101D100003F1FF327B689A647B689B6C002BE6DCE6
:101D200000E000BF7B684FF0FF329A64FFF72CFBA6
:101D3000FFF702FB14E07B681B69002B15D07B6862
:101D400003F11003184600F069FF0346002B01D091
:101D500001F048F87B685B6C03F1FF327B685A64E2
:101D60007B685B6C002BE6DC00E000BF7B684FF01B
:101D7000FF325A64FFF708FB07F10807BD4680BD34
:101D800080B584B000AF7860FFF7D6FA7B689B6BB4
:101D9000002B03D14FF00103FB6002E04FF0000382
:101DA000FB60FFF7F1FAFB68184607F11007BD4624
:101DB00080BD00BF80B584B000AF7860FFF7BCFA8B
:101DC0007B689A6B7B68DB6B9A4203D14FF001030F
:101DD000FB6002E04FF00003FB60FFF7D5FAFB6801
:101DE000184607F11007BD4680BD00BF80B485B01E
:101DF00000AF786039604FF00003FB601FE048F6E9
:101E00000463C2F20003FA6853F83230002B12D197
:101E100048F60463C2F20003FA68396843F83210E6
:101E200048F60462C2F20002FB684FEAC303D3180B
:101E30007A685A6006E0FB6803F10103FB60FB6807
:101E4000072BDCD907F11407BD4680BC704700BFE3
:101E500080B584B000AF786039607B68FB60FFF7C5
:101E60006BFAFB685B6CB3F1FF3F03D1FB684FF08B
:101E700000025A64FB689B6CB3F1FF3F03D1FB681F
:101E80004FF000029A64FFF77FFAFB689B6B002B10
:101E900006D1FB6803F124031846396800F074FE8C
:101EA000F868FFF71DFF07F11007BD4680BD00BFB2
:101EB00080B58AB002AFF860B9603B601346FB8022
:101EC000FB68002B02D1FFF783FAFEE7BB6A042B05
:101ED00002D9FFF77DFAFEE7FB881846396B01F05F
:101EE000D9F8B861BB69002B00F0A480BB691A6BFC
:101EF000FB8803F1FF334FEA8303D3187B617B69CF
:101F000023F007037B617B6903F00703002B02D0FA
:101F1000FFF75EFAFEE7FB880093B869B968BA6A12
:101F20007B6B00F07DFF7869F9683A68FFF7F6F897
:101F30000246BB691A60FB6A002B02D0FB6ABA69D1
:101F40001A60FFF7F9F948F68C53C2F200031B68D8
:101F500003F1010248F68C53C2F200031A6048F6FE
:101F6000B443C2F200031B68002B0FD148F6B44300
:101F7000C2F20003BA691A6048F68C53C2F2000339
:101F80001B68012B18D100F09FFF15E048F698530D
:101F9000C2F200031B68002B0ED148F6B443C2F214
:101FA00000031B68DA6ABB6A9A4205D848F6B44354
:101FB000C2F20003BA691A6048F6A853C2F20003DD
:101FC0001B6803F1010248F6A853C2F200031A602D
:101FD00048F6A853C2F200031A68BB691A64BB69C9
:101FE000DB6A4FF0010202FA03F248F69453C2F2A0
:101FF00000031B681A4348F69453C2F200031A60A8
:10200000BB69DA6A13464FEA83039B184FEA8303DE
:1020100048F6B842C2F200029A18BB6903F1040301
:1020200010461946FEF7F0FF4FF00103FB61FFF782
:10203000ABF902E04FF0FF33FB61FB69012B11D1DB
:1020400048F69853C2F200031B68002B0AD048F6EA
:10205000B443C2F200031B68DA6ABB6A9A4201D237
:10206000FFF75AF9FB69184607F12007BD4680BD06
:1020700080B586B000AF786039604FF000037B61B7
:102080007B68002B02D1FFF7A3F9FEE73B68002B2A
:1020900002D1FFF79DF9FEE748F6AC53C2F2000308
:1020A0001B68002B02D0FFF793F9FEE700F080FADF
:1020B00048F69053C2F200031B683B617B681A68C4
:1020C0003B68D318FB607B681A683B699A420CD95D
:1020D0007B681A68FB689A4213D9FA683B699A428E
:1020E0000FD94FF001037B610BE07B681A68FB6836
:1020F0009A4203D8FA683B699A4202D94FF0010329
:102100007B617B68FA681A607B69002B26D048F6F1
:10211000B443C2F200031B6803F104031846FEF740
:10212000D1FF0346002B16D148F6B443C2F2000398
:102130001B68DB6A4FF0010202FA03F36FEA030245
:1021400048F69453C2F200031B681A4048F69453B1
:10215000C2F200031A60F86800F056FF00F03AFA85
:10216000B860BB68002B01D1FFF7D6F807F118075C
:10217000BD4680BD80B584B000AF78604FF00003ED
:10218000FB607B68002B3DD048F6AC53C2F20003E5
:102190001B68002B02D0FFF71BF9FEE700F008FADE
:1021A00048F69053C2F200031A687B68D318BB60EC
:1021B00048F6B443C2F200031B6803F10403184657
:1021C000FEF780FF0346002B16D148F6B443C2F257
:1021D00000031B68DB6A4FF0010202FA03F36FEAA7
:1021E000030248F69453C2F200031B681A4048F6F3
:1021F0009453C2F200031A60B86800F005FF00F0C3
:10220000E9F9F860FB68002B01D1FFF785F807F1C9
:102210001007BD4680BD00BF80B586B000AF7860B6
:102220007B683B613B69002B02D1FFF7D1F8FEE7E9
:1022300048F6B443C2F200031B683A699A4203D1DC
:102240004FF00003FB753BE0FFF776F83B695B69F5
:10225000FB60FFF799F848F64453C2F200031B688D
:10226000FA689A4207D048F64853C2F200031B6846
:10227000FA689A4203D14FF00203FB7520E0FA6836
:1022800048F67853C2F200039A420BD13B699B6A2D
:10229000002B03D14FF00303FB7511E04FF0020355
:1022A000FB750DE0FA6848F66053C2F200039A42EB
:1022B00003D14FF00403FB7502E04FF00103FB75FF
:1022C000FB7D184607F11807BD4680BD80B584B078
:1022D00000AF7860FFF730F87B68002B05D148F637
:1022E000B443C2F200031B6800E07B68FB60FB683C
:1022F00003F104031846FEF7E5FE0346002B22D146
:10230000FB68D96A48F6B842C2F200020B464FEAAF
:1023100083035B184FEA8303D3181B68002B12D189
:10232000FB68DB6A4FF0010202FA03F36FEA030273
:1023300048F69453C2F200031B681A4048F69453BF
:10234000C2F200031A60FB689B6A002B05D0FB6891
:1023500003F118031846FEF7B5FEFB6803F104030A
:1023600048F67850C2F200001946FEF74DFEFFF71E
:102370000BF848F6B443C2F200031B68FA689A42AD
:102380002AD148F69853C2F200031B68002B0CD0E8
:1023900048F6AC53C2F200031B68002B02D0FFF7D3
:1023A00017F8FEE7FEF7B8FF23E048F67853C2F2CD
:1023B00000031A6848F68C53C2F200031B689A4265
:1023C00007D148F6B443C2F200034FF000021A608E
:1023D0000FE000F0D9FA0CE048F69853C2F200037F
:1023E0001B68002B05D0FEF7A7FF00F09BFEFEF751
:1023F000CBFF07F11007BD4680BD00BF80B584B09C
:1024000000AF78604FF00003FB607B68BB607B68C7
:10241000002B02D1FEF7DCFFFEE7BB685A6948F6E5
:102420007853C2F200039A4202D14FF0010301E057
:102430004FF00003002B15D0BB689A6A48F64C5346
:10244000C2F200039A420DD0BB689B6A002B02D1F6
:102450004FF0010301E04FF00003002B02D04FF0DA
:102460000103FB60FB68184607F11007BD4680BDFD
:1024700080B584B000AF78607B68FB607B68002B20
:1024800002D1FEF7A5FFFEE7FB68002B48D048F617
:10249000B443C2F200031B68FA689A4240D0FEF7C8
:1024A0004BFFF868FFF7AAFF0346012B36D1FB6804
:1024B00003F104031846FEF705FEFB68DB6A4FF0E4
:1024C000010202FA03F248F69453C2F200031B68B9
:1024D0001A4348F69453C2F200031A60FB68DA6AA2
:1024E00013464FEA83039B184FEA830348F6B8422A
:1024F000C2F200029A18FB6803F104031046194661
:10250000FEF782FDFB68DA6A48F6B443C2F20003C4
:102510001B68DB6A9A4201D3FEF7FEFEFEF734FF2A
:1025200007F11007BD4680BD80B586B004AF4FF0FF
:10253000000300934FF0000301934FF00003029358
:102540004FF00003039342F6FD50C0F6000045F241
:10255000F051C0F600014FF0C8024FF00003FFF742
:10256000A7FC78607B68012B02D100F073FF7860D4
:102570007B68012B12D1FEF72BFF48F69853C2F26D
:1025800000034FF001021A6048F69053C2F20003B4
:102590004FF000021A60FEF72BFE05E07B68002B6F
:1025A00002D1FEF715FFFEE707F10807BD4680BD23
:1025B00080B400AF48F6AC53C2F200031B6803F1CD
:1025C000010248F6AC53C2F200031A60BD4680BC5B
:1025D000704700BF80B582B000AF4FF000037B6052
:1025E00048F6AC53C2F200031B68002B02D1FEF781
:1025F000EFFEFEE7FEF7A0FE48F6AC53C2F2000382
:102600001B6803F1FF3248F6AC53C2F200031A60B4
:1026100048F6AC53C2F200031B68002B40F08C80DC
:1026200048F68C53C2F200031B68002B00F0848034
:1026300048E048F64C53C2F20003DB68DB683B60BD
:102640003B6803F118031846FEF73CFD3B6803F1B5
:1026500004031846FEF736FD3B68DB6A4FF00102C3
:1026600002FA03F248F69453C2F200031B681A43BD
:1026700048F69453C2F200031A603B68DA6A1346C4
:102680004FEA83039B184FEA830348F6B842C2F22D
:1026900000029A183B6803F1040310461946FEF73E
:1026A000B3FC3B68DA6A48F6B443C2F200031B6825
:1026B000DB6A9A4206D348F6A053C2F200034FF0F9
:1026C00001021A6048F64C53C2F200031B68002B4B
:1026D000AFD148F69C53C2F200031B68002B1FD0F9
:1026E00017E000F045F80346002B06D048F6A0534B
:1026F000C2F200034FF001021A6048F69C53C2F286
:1027000000031B6803F1FF3248F69C53C2F200033A
:102710001A6048F69C53C2F200031B68002BE0D1FC
:1027200048F6A053C2F200031B68012B04D14FF0FE
:1027300001037B60FEF7F0FDFEF726FE7B6818467E
:1027400007F10807BD4680BD80B582B000AFFEF737
:10275000F3FD48F69053C2F200031B687B60FEF75E
:1027600013FE7B68184607F10807BD4680BD00BF11
:1027700080B586B000AF4FF000037B6148F6AC53E4
:10278000C2F200031B68002B40F0DF8048F6905334
:10279000C2F200031B6803F1010248F69053C2F233
:1027A00000031A6048F69053C2F200031B683B61B5
:1027B0003B69002B2ED148F64453C2F200031B683C
:1027C0001B68002B02D0FEF703FEFEE748F64453D9
:1027D000C2F200031B68FB6048F64853C2F20003D4
:1027E0001A6848F64453C2F200031A6048F6485388
:1027F000C2F20003FA681A6048F6A453C2F200035A
:102800001B6803F1010248F6A453C2F200031A60E8
:1028100000F088FC40F20803C2F200031B683A692A
:102820009A4271D300E000BF48F64453C2F200035D
:102830001B681B68002B02D14FF0010301E04FF031
:102840000003002B07D040F20803C2F200034FF050
:10285000FF321A6058E048F64453C2F200031B6886
:10286000DB68DB68BB60BB685B687B603A697B6880
:102870009A4206D240F20803C2F200037A681A6054
:1028800042E0BB6803F104031846FEF71BFCBB687B
:102890009B6A002B05D0BB6803F118031846FEF7AE
:1028A00011FCBB68DB6A4FF0010202FA03F248F642
:1028B0009453C2F200031B681A4348F69453C2F2C1
:1028C00000031A60BB68DA6A13464FEA83039B1859
:1028D0004FEA830348F6B842C2F200029A18BB6876
:1028E00003F1040310461946FEF78EFBBB68DA6A53
:1028F00048F6B443C2F200031B68DB6A9A4292D3E3
:102900004FF001037B618EE748F6B443C2F2000347
:102910001B68D96A48F6B842C2F200020B464FEA79
:1029200083035B184FEA8303D3181B68012B02D97A
:102930004FF001037B6148F69C53C2F200031B6811
:10294000002B10D102F09CF90DE048F69C53C2F226
:1029500000031B6803F1010248F69C53C2F2000316
:102960001A6002F08DF948F6A053C2F200031B680A
:10297000002B02D04FF001037B617B69184607F101
:102980001807BD4680BD00BF90B585B000AF48F6C2
:10299000AC53C2F200031B68002B07D048F6A053CB
:1029A000C2F200034FF001021A608CE048F6A05317
:1029B000C2F200034FF000021A6048F6B443C2F2BC
:1029C00000031B681A6848F6B443C2F200031B6890
:1029D0001B6B9A420FD848F6B443C2F200031A6840
:1029E00048F6B443C2F200031B6803F134031046F7
:1029F000194602F057F948F6B443C2F200031B68C7
:102A00001B6B184645F2F851C0F600014FF0140256
:102A100002F0BAFD0346002B0FD048F6B443C2F2D1
:102A200000031A6848F6B443C2F200031B6803F1BE
:102A300034031046194602F035F948F69453C2F2B1
:102A400000031B687B607B68B3FA83F4FC70FB783F
:102A5000C3F11F03FB6048F6B842C2F20002F968F6
:102A60000B464FEA83035B184FEA8303D3181B68B6
:102A7000002B02D1FEF7ACFCFEE7FA6813464FEAE2
:102A800083039B184FEA830348F6B842C2F2000260
:102A90009B18BB60BB685B685A68BB685A60BB68C0
:102AA0005A68BB6803F108039A4204D1BB685B68AB
:102AB0005A68BB685A60BB685B68DA6848F6B4431A
:102AC000C2F200031A6007F11407BD4690BD00BFB3
:102AD00080B584B000AF786039607B68002B02D18C
:102AE000FEF776FCFEE748F6B443C2F200031B682B
:102AF00003F1180378681946FEF7AAFA48F6B443BA
:102B0000C2F200031B6803F104031846FEF7DAFA69
:102B10000346002B16D148F6B443C2F200031B68EB
:102B2000DB6A4FF0010202FA03F36FEA030248F690
:102B30009453C2F200031B681A4048F69453C2F241
:102B400000031A603B68B3F1FF3F0ED148F6B4436F
:102B5000C2F200031B6803F1040348F67850C2F286
:102B600000001946FEF750FA0AE048F69053C2F208
:102B700000031A683B68D318FB60F86800F044FA59
:102B800007F11007BD4680BD80B584B000AF786006
:102B900039607B68002B02D1FEF71AFCFEE748F68D
:102BA000B443C2F200031B6803F1180378681946A6
:102BB000FEF72AFA48F6B443C2F200031B6803F199
:102BC00004031846FEF77EFA0346002B16D148F69A
:102BD000B443C2F200031B68DB6A4FF0010202FA41
:102BE00003F36FEA030248F69453C2F200031B6832
:102BF0001A4048F69453C2F200031A6048F6905304
:102C0000C2F200031A683B68D318FB60F86800F052
:102C1000FBF907F11007BD4680BD00BF80B584B049
:102C200000AF78607B68DB68DB68BB60BB68002B4B
:102C300002D1FEF7CDFBFEE7BB6803F1180318468F
:102C4000FEF740FA48F6AC53C2F200031B68002BB3
:102C50002BD1BB6803F104031846FEF733FABB68B7
:102C6000DB6A4FF0010202FA03F248F69453C2F213
:102C700000031B681A4348F69453C2F200031A601B
:102C8000BB68DA6A13464FEA83039B184FEA830353
:102C900048F6B842C2F200029A18BB6803F1040376
:102CA00010461946FEF7B0F909E0BB6803F11803B6
:102CB00048F64C50C2F200001946FEF7A5F9BB6871
:102CC000DA6A48F6B443C2F200031B68DB6A9A4230
:102CD0000AD94FF00103FB6048F6A053C2F200038B
:102CE0004FF001021A6002E04FF00003FB60FB6846
:102CF000184607F11007BD4680BD00BF80B582B001
:102D000000AF78607B68002B02D1FEF761FBFEE725
:102D100048F6A453C2F200031A687B681A6048F6AA
:102D20009053C2F200031A687B685A6007F10807E3
:102D3000BD4680BD80B584B000AF786039607B68E7
:102D4000002B02D1FEF744FBFEE73B68002B02D1CB
:102D5000FEF73EFBFEE7FEF7EFFA48F69053C2F2AD
:102D600000031B68BB603B681B68B3F1FF3F03D1E6
:102D70004FF00003FB602CE07B681A6848F6A45310
:102D8000C2F200031B689A4208D07B685A68BB688D
:102D90009A4203D84FF00103FB601AE07B685B683E
:102DA000BA68D21A3B681B689A420FD23B681A680D
:102DB0007B685968BB68CB1AD2183B681A60786880
:102DC000FFF79CFF4FF00003FB6002E04FF00103B0
:102DD000FB60FEF7D9FAFB68184607F11007BD46FD
:102DE00080BD00BF80B400AF48F6A053C2F200031C
:102DF0004FF001021A60BD4680BC704780B582B0BA
:102E000000AF786000F0B2F848F6B843C2F20003B1
:102E10001B68012B01D9FEF77FFA01F03DFFF1E7B6
:102E200080B586B000AFF860B9607A603B604FF063
:102E300000037B6113E0BA687B69D3181A78F968DC
:102E40007B69CB1803F130031A71BA687B69D31818
:102E50001B78002B07D07B6903F101037B617B6941
:102E6000092BE8D900E000BFFB684FF0000283F8AF
:102E70003D207B68042B02D94FF004037B60FB6884
:102E80007A68DA62FB687A689A64FB684FF000023D
:102E9000DA64FB6803F104031846FEF7A7F8FB6841
:102EA00003F118031846FEF7A1F8FB68FA681A61E7
:102EB0007B68C3F10502FB689A61FB68FA685A6295
:102EC00007F11807BD4680BD80B582B000AF4FF056
:102ED00000037B6012E07A6813464FEA83039B1875
:102EE0004FEA830348F6B842C2F200029B18184624
:102EF000FEF75CF87B6803F101037B607B68042BC1
:102F0000E9D948F61C50C2F20000FEF74FF848F627
:102F10003050C2F20000FEF749F848F64C50C2F2B9
:102F20000000FEF743F848F66050C2F20000FEF7DA
:102F30003DF848F67850C2F20000FEF737F848F640
:102F40004453C2F2000348F61C52C2F200021A6057
:102F500048F64853C2F2000348F63052C2F200026B
:102F60001A6007F10807BD4680BD00BF80B582B07A
:102F700000AF3DE0FFF71CFB48F66053C2F20003D0
:102F80001B68002B14BF00230123DBB27B60FFF71B
:102F900021FB7B68002B2BD1FEF7CEF948F660535E
:102FA000C2F20003DB68DB683B603B6803F10403AB
:102FB0001846FEF787F848F68C53C2F200031B68E8
:102FC00003F1FF3248F68C53C2F200031A6048F650
:102FD0007453C2F200031B6803F1FF3248F67453C6
:102FE000C2F200031A60FEF7CFF9386800F08AF8E1
:102FF00048F67453C2F200031B68002BBAD107F1E4
:103000000807BD4680BD00BF80B582B000AF7860C4
:1030100048F6B443C2F200031B687A685A6048F667
:103020009053C2F200031B687A689A4210D248F6A5
:103030004853C2F200031A6848F6B443C2F20003D0
:103040001B6803F1040310461946FEF701F81DE062
:1030500048F64453C2F200031A6848F6B443C2F279
:1030600000031B6803F1040310461946FDF7F0FF47
:1030700040F20803C2F200031B687A689A4205D244
:1030800040F20803C2F200037A681A6007F10807E9
:10309000BD4680BD80B584B000AF03463960FB807B
:1030A0004FF05000FDF756FEF860FB68002B23D070
:1030B0003B68002B07D1FB884FEA83031846FDF7D6
:1030C00049FE034600E03B68FA681363FB681B6B2C
:1030D000002B06D1F868FDF7EFFE4FF00003FB6010
:1030E0000AE0FB681A6BFB884FEA830310464FF037
:1030F000A5011A4602F061FAFB68184607F11007AD
:10310000BD4680BD80B582B000AF78607B681B6B28
:103110001846FDF7D1FE7868FDF7CEFE07F10807E7
:10312000BD4680BD80B483B000AF48F64453C2F2C0
:1031300000031B681B68002B02D14FF0010301E064
:103140004FF00003002B07D040F20803C2F2000347
:103150004FF0FF321A600EE048F64453C2F200030B
:103160001B68DB68DB687B607B685A6840F2080399
:10317000C2F200031A6007F10C07BD4680BC70471D
:1031800080B483B000AF48F69853C2F200031B68C6
:10319000002B03D14FF001037B600DE048F6AC53E8
:1031A000C2F200031B68002B03D14FF002037B60C7
:1031B00002E04FF000037B607B68184607F10C07C4
:1031C000BD4680BC704700BF80B584B000AF78605A
:1031D0007B68FB607B68002B00F09380FB68DA6AF9
:1031E00048F6B443C2F200031B68DB6A9A4280F0DF
:1031F0008880FB689B69002B09DB48F6B443C2F268
:1032000000031B68DB6AC3F10502FB689A61FB6877
:103210005969FB68DA6A13464FEA83039B184FEA41
:10322000830348F6B842C2F200029B18994202D1C9
:103230004FF0010301E04FF00003002B59D0FB6871
:1032400003F104031846FDF73DFF0346002B22D18E
:10325000FB68D96A48F6B842C2F200020B464FEA50
:1032600083035B184FEA8303D3181B68002B12D12A
:10327000FB68DB6A4FF0010202FA03F36FEA030214
:1032800048F69453C2F200031B681A4048F6945360
:10329000C2F200031A6048F6B443C2F200031B688E
:1032A000DA6AFB68DA62FB68DB6A4FF0010202FA55
:1032B00003F248F69453C2F200031B681A4348F61F
:1032C0009453C2F200031A60FB68DA6A13464FEAAD
:1032D00083039B184FEA830348F6B842C2F2000208
:1032E0009A18FB6803F1040310461946FDF78CFE9B
:1032F00007E048F6B443C2F200031B68DA6AFB68D1
:10330000DA6207F11007BD4680BD00BF80B584B00A
:1033100000AF78607B68BB604FF00003FB607B68A8
:10332000002B74D0BB68DB6C002B02D1FEF750F889
:10333000FEE7BB68DB6C03F1FF32BB68DA64BB6895
:10334000DA6ABB689B6C9A4261D0BB68DB6C002B6D
:103350005DD1BB6803F104031846FDF7B3FE0346D5
:10336000002B22D1BB68D96A48F6B842C2F20002EB
:103370000B464FEA83035B184FEA8303D3181B689D
:10338000002B12D1BB68DB6A4FF0010202FA03F393
:103390006FEA030248F69453C2F200031B681A4016
:1033A00048F69453C2F200031A60BB689A6CBB687B
:1033B000DA62BB68DB6AC3F10502BB689A61BB686D
:1033C000DB6A4FF0010202FA03F248F69453C2F2AC
:1033D00000031B681A4348F69453C2F200031A60B4
:1033E000BB68DA6A13464FEA83039B184FEA8303EC
:1033F00048F6B842C2F200029A18BB6803F104030F
:1034000010461946FDF700FE4FF00103FB60FB6814
:10341000184607F11007BD4680BD00BF80B400AF5D
:1034200048F6B443C2F200031B68002B08D048F6EC
:10343000B443C2F200031B68DA6C02F10102DA64E1
:1034400048F6B443C2F200031B681846BD4680BC70
:10345000704700BF80B586B004AF4FF000037B60BB
:1034600000F0ACFA48F6E053C2F200031B68002BF0
:103470001AD04FF0020300934FF0000301934FF076
:10348000000302934FF00003039343F2E950C0F6A8
:10349000000045F20C61C0F600014FF4C8724FF015
:1034A0000003FEF705FD78607B68002B02D1FDF775
:1034B0008FFFFEE77B68184607F10807BD4680BD11
:1034C00080B588B000AFF860B9607A603B604FF0BB
:1034D0000003FB6148F6E053C2F200031B68002BB7
:1034E0003DD0BB683B617B687B61FB68BB61BB68AF
:1034F000052B25DCFFF744FE0346022B0FD148F6CF
:10350000E053C2F200031A6807F11003104619468F
:10351000BA6A4FF00003FEF705F9F8611FE048F6BC
:10352000E053C2F200031A6807F11003104619466F
:103530004FF000024FF00003FEF7F4F8F8610EE0E0
:1035400048F6E053C2F200031A6807F11003104670
:1035500019463A684FF00003FEF7BAF9F861FB69C3
:10356000184607F12007BD4680BD00BF80B586B074
:1035700002AF7860396048F6D853C2F200031B6886
:10358000DB68DB68FB60FB6803F104031846FDF7AA
:1035900099FDFB68DB69012B1ED1FB689A697B688A
:1035A000D318F86819463A687B6800F0B9F8034602
:1035B000012B11D14FF000030093F8684FF0000188
:1035C0007A684FF00003FFF77BFFB860BB68002B01
:1035D00002D1FDF7FDFEFEE7FB685B6AF8689847DD
:1035E00007F11007BD4680BD80B584B000AF78609C
:1035F00007F10803184600F043F8F860BB68F86864
:10360000194600F003F800F0D5F8F1E780B584B072
:1036100000AF78603960FEF7CBFF07F1080318466A
:1036200000F058F8F860BB68002B21D13B68002BF4
:103630000AD17A68FB689A4206D8FEF7CBFF786811
:10364000F968FFF793FF17E048F6E053C2F2000372
:103650001A687968FB68CB1A10461946FEF7F8FB22
:10366000FEF7B8FF0346002B05D1FDF755FE02E03B
:10367000FEF7B0FF00E000BF07F11007BD4680BDB8
:1036800080B485B000AF786048F6D853C2F200032A
:103690001B681B68002B14BF00230123DBB21A46F2
:1036A0007B681A607B681B68002B08D148F6D853EA
:1036B000C2F200031B68DB681B68FB6002E04FF08E
:1036C0000003FB60FB68184607F11407BD4680BC89
:1036D000704700BF80B584B000AF7860FFF734F862
:1036E000F86048F6E453C2F200031B68FA689A4295
:1036F00006D200F0F1F87B684FF001021A6003E097
:103700007B684FF000021A6048F6E453C2F20003EF
:10371000FA681A60FB68184607F11007BD4680BDBD
:1037200080B586B000AFF860B9607A603B604FF05A
:1037300000037B61FB68BA685A60FB68FA681A612B
:10374000BA687B689A4217D87A683B68D21AFB68D5
:103750009B699A4203D34FF001037B6124E048F652
:10376000DC53C2F200031A68FB6803F1040310463D
:103770001946FDF76DFC17E07A683B689A4207D25C
:10378000BA683B689A4203D34FF001037B610BE0B8
:1037900048F6D853C2F200031A68FB6803F1040329
:1037A00010461946FDF754FC7B69184607F11807C7
:1037B000BD4680BD80B58AB002AF76E0BB68002B05
:1037C00073DB3B69FB61FB695B69002B05D0FB691F
:1037D00003F104031846FDF775FC07F104031846CE
:1037E000FFF778FFB861BB68092B5BD801A252F8DC
:1037F00023F000BF1D3800081D3800081D380008E0
:10380000A5380008733800089D3800081D380008E6
:103810001D380008A538000873380008FA68FB69ED
:103820009B69D218FB68F8691146BA69FFF778FFFF
:103830000346012B38D1FB695B6AF8699847FB693D
:10384000DB69012B30D1FA68FB699B69D3184FF013
:1038500000020092F8694FF000011A464FF0000391
:10386000FFF72EFE78617B69002B1DD1FDF7B0FDBF
:10387000FEE7FA68FB699A61FB699B69002B02D13C
:10388000FDF7A6FDFEE7FB699A69BB69D318F869E5
:103890001946BA69BB69FFF743FF06E0F869FDF70F
:1038A0000BFB02E000BF00E000BF48F6E053C2F2AD
:1038B00000031A6807F10803104619464FF000028A
:1038C0004FF00003FEF782F80346002B7FF476AF3B
:1038D00007F12007BD4680BD80B588B002AF4BE040
:1038E00048F6D853C2F200031B68DB681B687B6193
:1038F00048F6D853C2F200031B68DB68DB683B6103
:103900003B6903F104031846FDF7DCFB3B695B6A86
:10391000386998473B69DB69012B2DD13B699A696E
:103920007B69D318FB60FA687B699A4212D93B69BC
:10393000FA685A603B693A691A6148F6D853C2F28C
:1039400000031A683B6903F1040310461946FDF7AA
:103950007FFB11E04FF00003009338694FF0000146
:103960007A694FF00003FFF7ABFDB860BB68002B2E
:1039700002D1FDF72DFDFEE748F6D853C2F2000351
:103980001B681B68002BABD148F6D853C2F200036A
:103990001B687B6048F6DC53C2F200031A6848F6E5
:1039A000D853C2F200031A6048F6DC53C2F2000397
:1039B0007A681A6007F11807BD4680BD80B500AF70
:1039C000FDF7BAFC48F6E053C2F200031B68002B77
:1039D00048D148F6B050C2F20000FDF7E7FA48F6C9
:1039E000C450C2F20000FDF7E1FA48F6D853C2F223
:1039F000000348F6B052C2F200021A6048F6DC53E7
:103A0000C2F2000348F6C452C2F200021A604FF03C
:103A10000A004FF00C014FF00002FDF7E5FD0246F1
:103A200048F6E053C2F200031A6048F6E053C2F2CF
:103A300000031B68002B02D1FDF7CAFCFEE748F625
:103A4000E053C2F200031B68002B0BD048F6E05392
:103A5000C2F200031B68184645F21461C0F600016B
:103A6000FEF7C4F9FDF790FC80BD00BF80B586B0BD
:103A700004AF786048F6EC53C2F200031B68002BD9
:103A80000DD14FF001004FF000014FF00302FDF7A0
:103A9000ABFD024648F6EC53C2F200031A607B68A5
:103AA00000934FF0000301934FF0000302934FF097
:103AB0000003039343F6D920C0F6000045F21C61D1
:103AC000C0F600014FF0C8024FF00003FEF7F0F916
:103AD00007F10807BD4680BD80B582B000AF7860B1
:103AE00048F6EC53C2F200031B6818464FF0000181
:103AF0004FF000024FF00003FDF768FF48F6EC536B
:103B0000C2F200031B6818464FF000014FF0FF326D
:103B10004FF00003FDF75AFF48F6FC53C2F20003D2
:103B20001B6803F1010248F6FC53C2F200031A605D
:103B300048F6F053C2F200031B6818464FF000012C
:103B40004FF000024FF00003FDF7ECFD48F68463F0
:103B5000C2F200031B681846FEF75EFB0346022B09
:103B60000AD048F68463C2F200031B681846FEF7C9
:103B700053FB0346002B08D148F68463C2F20003CE
:103B80001B681846FEF7A2FB12E048F68463C2F2F7
:103B900000031B681846FEF73FFB0346032B07D1C3
:103BA00048F68463C2F200031B681846FEF760FC07
:103BB0004FF4FA70FEF7DEFAA0E700BF80B400AF62
:103BC0004FF4A053C4F200034FF4A052C4F2000219
:103BD000126922F001021A6148F6E853C2F20003AA
:103BE0004FF000021A704FF4A053C4F200034FF0DC
:103BF00000025A624FF4A053C4F200034FF4A052E3
:103C0000C4F20002128892B222F0010292B21A802B
:103C1000BD4680BC704700BF80B483B000AF034690
:103C2000FB714FF46143CEF2000397F907204FEA8E
:103C30005212F97901F01F014FF0010000FA01F171
:103C400043F8221007F10C07BD4680BC704700BF47
:103C500080B483B000AF03463960FB7197F9073039
:103C6000002B10DA4FF46D43CEF20003FA7902F024
:103C70000F02A2F104013A68D2B24FEA0212D2B2A4
:103C80005B181A760DE04FF46143CEF2000397F90A
:103C900007103A68D2B24FEA0212D2B25B1883F828
:103CA000002307F10C07BD4680BC704780B489B083
:103CB00000AFF860B9607A60FB6803F00703FB614E
:103CC000FB69C3F10703042B28BF0423BB61FB6915
:103CD00003F10403062B03D9FB69A3F1030301E0FD
:103CE0004FF000037B61BB694FF0010202FA03F35E
:103CF00003F1FF331A46BB681A407B6902FA03F2EC
:103D00007B694FF0010101FA03F303F1FF33194618
:103D10007B680B401343184607F12407BD4680BC5F
:103D2000704700BF80B582B002AF01F0FDF94FF4DB
:103D30004070FCF791FC4FF48053C4F202034FF43F
:103D40008052C4F20202526942F408125A614FF4DE
:103D50008053C4F202034FF48052C4F2020292690B
:103D600042F001029A614FF0010300934FF480503A
:103D7000C4F600004FF00001CCF60C414FF00002F9
:103D80004FF00203FCF750FF4FF090404FF003015B
:103D90004FF000024FF00203FCF7F6FE4FF0000078
:103DA0004FF00001FCF798FE4FF48063C4F201036A
:103DB0004FF48062C4F20102126842F001021A60FC
:103DC0004FF48063C4F201034FF48062C4F2010235
:103DD000926842F001029A604FF440704FF00F0178
:103DE0004FF00F02FFF762FF03464FF0060019463F
:103DF000FFF72EFF4FF00600FFF70EFF4FF4805342
:103E0000C4F202034FF48052C4F20202526942F437
:103E100000225A614FF40063C4F600034FF40062BD
:103E2000C4F60002126842F420621A604FF4006384
:103E3000C4F600034FF40062C4F60002928892B206
:103E400042F0100292B29A804FF40063C4F600036D
:103E50004FF40062C4F60002926842F440729A6025
:103E60004FF40063C4F600034FF40062C4F600028E
:103E7000D26822F44072DA604FF40063C4F60003A3
:103E80004FF40062C4F60002126A42F4EE021A62B3
:103E90004FF48053C4F202034FF48052C4F2020282
:103EA000926942F480429A614FF46053C4F2010374
:103EB00040F271229A814FF46053C4F201034FF42F
:103EC0006052C4F20102126822F400421A604FF4F8
:103ED0006053C4F201034FF46052C4F2010252680D
:103EE00042F400025A604FF46053C4F201034FF0F1
:103EF00016025A614FF46053C4F201034FF460524A
:103F0000C4F20102126842F004021A604FF46053D6
:103F1000C4F201034FF46052C4F20102126842F08D
:103F200001021A604FF46053C4F201034FF460526F
:103F3000C4F20102126842F020021A604FF460538A
:103F4000C4F201034FF46052C4F20102126842F05D
:103F500080621A604FF440704FF00F014FF00F0273
:103F6000FFF7A4FE03464FF025001946FFF770FE49
:103F70004FF02500FFF750FE00F01AFEBD4680BD51
:103F800080B483B000AF786039607B689B8A9BB255
:103F90009AB23B684FF0010101FA03F39BB2534020
:103FA0009BB29AB27B689A8207F10C07BD4680BC2F
:103FB000704700BF80B400AF4FF46053C4F20103F8
:103FC0004FF46052C4F20102126842F008021A6013
:103FD0004FF46053C4F201034FF46052C4F2010283
:103FE000126842F080021A60BD4680BC704700BF74
:103FF00080B400AF4FF46053C4F201034FF4605239
:10400000C4F20102126822F008021A604FF46053F1
:10401000C4F201034FF46052C4F20102126822F0AC
:1040200080021A60BD4680BC704700BF80B483B078
:1040300000AF0346FB714FF46053C4F20103FA79F9
:1040400092B21A8507F10C07BD4680BC704700BFCD
:1040500080B400AF4FF000031846BD4680BC7047E7
:1040600080B400AF4FF000031846BD4680BC7047D7
:1040700080B58CB000AF4FF400104FF00101FCF799
:1040800053FB4FF480204FF00101FCF7F9FA4FF495
:104090008060C4F600004FF006014FF00402FCF708
:1040A000B7F94FF48060C4F600004FF007014FF0FD
:1040B0000402FCF7ADF94FF0020387F82C304FF003
:1040C000000387F82E304FF0020387F82F304FF0AF
:1040D000030387F82D304FF04003BB6207F128033C
:1040E0004FF48060C4F600001946FCF7CDF84FF09D
:1040F0008003BB6207F128034FF48060C4F6000020
:104100001946FCF7C1F84FF000033B614FF0000384
:10411000BB604FF00003FB604FF000037B614FF08A
:104120000003BB614FF00003FB6142F22503C0F2C4
:1041300090037B6007F104034FF4A840C4F2000031
:104140001946FCF7B9F94FF4A840C4F200004FF04B
:104150000101FCF719FA07F13007BD4680BD00BF29
:1041600080B588B000AF4FF480504FF00101FCF7EC
:10417000B1FA4FF400304FF00101FCF781FA4FF42F
:1041800000104FF00101FCF77BFA4FF090404FF028
:1041900005014FF00502FCF73BF94FF090404FF05E
:1041A00006014FF00502FCF733F94FF090404FF055
:1041B00007014FF00502FCF72BF94FF002033B77A4
:1041C0004FF00003BB774FF00003FB774FF0030382
:1041D0007B774FF02003BB6107F118034FF090404D
:1041E0001946FCF751F84FF08003BB6107F1180343
:1041F0004FF090401946FCF747F84FF04003BB6181
:1042000007F118034FF090401946FCF73DF84FF4C2
:104210004050C4F20100FCF705FB4FF00003BB80E7
:104220004FF4E0633B814FF000037B814FF00003CC
:10423000BB814FF40073FB814FF010033B824FF0C2
:1042400000037B824FF00703BB824FF48273FB8035
:1042500007F104034FF44050C4F201001946FCF783
:1042600025FB4FF44050C4F201004FF48051FCF79D
:10427000C9FB4FF44050C4F201004FF00101FCF7BC
:10428000A1FB4FF00803BB614FF001033B774FF0F8
:104290000003BB774FF003037B7707F118034FF45C
:1042A0008050C4F600001946FBF7EEFF4FF4805033
:1042B000C4F600004FF00801FCF78EF807F1200764
:1042C000BD4680BD80B586B002AF0B463A6002465F
:1042D000FA71BB714FF42043FB810EE0FB89002B88
:1042E00014BF00230123DBB2FA8902F1FF32FA8105
:1042F000002B02D04FF00003B7E04FF4A843C4F204
:1043000000039B6903F40043002BE7D1FB799BB2C8
:104310004FF4005200924FF4A840C4F20000194636
:104320004FF001024FF08073FCF74AF94FF420433D
:10433000FB810EE0FB89002B14BF00230123DBB2BD
:10434000FA8902F1FF32FA81002B02D04FF000030C
:104350008BE04FF4A843C4F200039B6903F002030F
:10436000002BE7D0BB794FF4A840C4F200001946F7
:10437000FCF756F94FF42043FB810EE0FB89002B3C
:1043800014BF00230123DBB2FA8902F1FF32FA8164
:10439000002B02D04FF0000367E04FF4A843C4F2B3
:1043A00000039B6903F08003002BE7D0FB799BB2ED
:1043B0004FF0000200924FF4A840C4F200001946EA
:1043C0004FF001024FF00073FCF7FAF84FF420436E
:1043D000FB810EE0FB89002B14BF00230123DBB21D
:1043E000FA8902F1FF32FA81002B02D04FF000036C
:1043F0003BE04FF4A843C4F200039B6903F00203BF
:10440000002BE7D03B681B784FF4A840C4F20000B3
:104410001946FCF705F94FF42043FB810EE0FB89B8
:10442000002B14BF00230123DBB2FA8902F1FF3213
:10443000FA81002B02D04FF0000316E04FF4A8439E
:10444000C4F200039B6903F02003002BE7D04FF474
:10445000A843C4F200034FF4A842C4F20002D26998
:1044600042F02002DA614FF00003184607F110070E
:10447000BD4680BD80B586B002AF3A600246FA7193
:104480000A46BA71BB804FF42043FB8110E0FB89E0
:10449000002B14BF00230123DBB2FA8902F1FF32A3
:1044A000FA81002B04D0FFF7D3FD03469BB2D4E082
:1044B0004FF4A843C4F200039B6903F40043002BAC
:1044C000E5D1FB799BB24FF4005200924FF4A84023
:1044D000C4F2000019464FF001024FF00003FCF750
:1044E0006FF84FF42043FB8110E0FB89002B14BFD1
:1044F00000230123DBB2FA8902F1FF32FA81002B9B
:1045000004D0FFF7A5FD03469BB2A6E04FF4A843F5
:10451000C4F200039B6903F00203002BE5D0BB88C3
:10452000012B03D9BB7963F07F03BB71BB794FF4D7
:10453000A840C4F200001946FCF772F84FF420437B
:10454000FB8110E0FB89002B14BF00230123DBB2A9
:10455000FA8902F1FF32FA81002B04D0FFF778FDCF
:1045600003469BB279E04FF4A843C4F200039B6971
:1045700003F04003002BE5D0FB799AB2BB88DBB295
:104580004FF4105100914FF4A840C4F200001146BE
:104590001A464FF00073FCF713F82FE04FF4204356
:1045A000FB8110E0FB89002B14BF00230123DBB249
:1045B000FA8902F1FF32FA81002B04D0FFF748FD9F
:1045C00003469BB249E04FF4A843C4F200039B6941
:1045D00003F00403002BE5D04FF4A840C4F2000020
:1045E000FCF72CF803461A463B681A703B6803F147
:1045F00001033B60BB8803F1FF33BB80BB88002B0A
:10460000CCD14FF42043FB8110E0FB89002B14BF79
:1046100000230123DBB2FA8902F1FF32FA81002B79
:1046200004D0FFF715FD03469BB216E04FF4A843F4
:10463000C4F200039B6903F02003002BE5D04FF484
:10464000A843C4F200034FF4A842C4F20002D269A6
:1046500042F02002DA614FF00003184607F110071C
:10466000BD4680BD80B584B000AF0346FB714FF4FA
:104670008053FB6010E0FB68002B14BF0023012374
:10468000DBB2FA6802F1FF32FA60002B04D0FFF7C8
:10469000E7FC0346DBB239E04FF44050C4F20100BE
:1046A0004FF00201FCF7F8F90346002BE3D0FB7949
:1046B0004FF44050C4F201001946FCF7BFF94FF423
:1046C0008053FB6010E0FB68002B14BF0023012324
:1046D000DBB2FA6802F1FF32FA60002B04D0FFF778
:1046E000BFFC0346DBB211E04FF44050C4F20100BE
:1046F0004FF00101FCF7D0F90346002BE3D04FF453
:104700004050C4F20100FCF7B1F90346184607F126
:104710001007BD4680BD00BF80B582B000AF786095
:1047200013460A46FA703B803B88012B03D9FB787D
:1047300043F04003FB704FF48050C4F600004FF08C
:104740000801FBF757FEFB781846FFF78BFF0CE0DC
:104750007B681B781846FFF785FF3B8803F1FF3322
:104760003B807B6803F101037B603B88002BEFD12A
:104770004FF48050C4F600004FF00801FBF72CFE08
:1047800007F10807BD4680BD80B582B000AF7860F4
:1047900013460A46FA703B803B88012B04D9FB780C
:1047A00063F03F03FB7003E0FB7863F07F03FB7073
:1047B0004FF48050C4F600004FF00801FBF71AFEDA
:1047C000FB781846FFF74EFF0FE04FF00000FFF7B1
:1047D00049FF03461A467B681A703B8803F1FF3392
:1047E0003B807B6803F101037B603B88002BECD1AD
:1047F0004FF48050C4F600004FF00801FBF7ECFDC9
:1048000007F10807BD4680BD80B582B000AF4FF00C
:104810000003FB714FF00003BB714FF000037B718D
:10482000FFF726FCFB7943F04703DBB2FB71BB7952
:1048300063F06F03DBB2BB717B7943F00803DBB23B
:104840007B7107F107034FF032004FF020011A4649
:10485000FFF738FD07F106034FF032004FF021015A
:104860001A46FFF72FFD07F105034FF032004FF016
:1048700023011A46FFF726FD07F10807BD4680BD54
:1048800080B582B000AF4FF00003FB714FF0000322
:10489000BB714FF000037B71FFF7EAFBFB7963F01C
:1048A0007F03DBB2FB71FB7943F01803DBB2FB71D2
:1048B000BB7943F02003DBB2BB717B797B7107F1DD
:1048C00007034FF03C004FF000011A46FFF7FAFCD7
:1048D00007F106034FF03C004FF001011A46FFF7C5
:1048E000F1FC07F105034FF03C004FF002011A46BE
:1048F000FFF7E8FC07F10807BD4680BD80B582B030
:1049000000AF4FF00003FB714FF00003BB714FF09D
:1049100000037B71FFF724FCFB7943F03F03DBB21C
:10492000FB71BB79BB717B7943F01003DBB27B7108
:1049300007F1070318464FF020014FF00102FFF77F
:10494000EBFE07F1060318464FF021014FF001027C
:10495000FFF7E2FE07F1050318464FF023014FF081
:104960000102FFF7D9FE07F10807BD4680BD00BF71
:1049700080B586B000AF78604FF00003BB604FF0A9
:104980000003BB8107F108034FF032004FF028010C
:104990001A464FF00603FFF76DFD4FF00003FB755D
:1049A0004FF00003FB753EE0F97DFB7D4FEA4303CA
:1049B00003F1010307F11800C31813F8103C4FEA84
:1049C00003239BB21AB2FB7D4FEA430307F11800A1
:1049D000C31813F8103CD31803F10F02002BB8BF13
:1049E00013464FEA23139AB24FEA410307F1180125
:1049F000CB1823F8082CFB7D4FEA83037A68D21882
:104A0000FB7D4FEA430307F11800C31833F8083C55
:104A10001BB207EE103AF8EEC77AC2ED007AFB7DC2
:104A200003F10103FB75FB7D022BBDD907F11807CC
:104A3000BD4680BD80B584B000AF78604FF0000304
:104A4000BB604FF00003BB8107F108034FF03C004F
:104A50004FF003011A464FF00603FFF70BFD4FF02E
:104A60000003FB732FE0FB7B4FEA83037A68D318C4
:104A7000FA7B4FEA420207F11000821812F8082C64
:104A80004FEA022291B2FA7B4FEA420202F101029E
:104A900007F11000821812F8082C8A1892B292B20C
:104AA00012B24FF47A7101FB02F207EE902AB8EECF
:104AB000E77ADFED157AC7EE277AC3ED007AFB7B44
:104AC00003F10103FB73FB7B012BCCD97B6803F162
:104AD00008033A7B4FEA022291B27A7B8A1892B29B
:104AE00092B212B24FF47A7101FB02F207EE902AF1
:104AF000B8EEE77ADFED057AC7EE277AC3ED007AE4
:104B000007F11007BD4680BD008089440000754450
:104B100080B586B000AF78604FF00003FB604FF0C7
:104B200000033B824FF00003BB8207F10C031846E1
:104B30004FF028014FF00602FFF726FE4FF000036A
:104B4000FB752CE0FB7D4FEA430303F1010307F102
:104B50001801CB1813F80C3C4FEA03239AB2FB7DE3
:104B60004FEA430307F11801CB1813F80C3CD31894
:104B70009BB2BB82FB7D4FEA83037A68D318B7F9F7
:104B8000142007EE902AB8EEE77ADFED087AC7EE38
:104B9000277AC3ED007AFB7D03F10103FB75FB7DF2
:104BA000022BCFD907F11807BD4680BD549264424D
:104BB00080B500AFFFF764FEFFF726FEFFF79EFE0D
:104BC00080BD00BF80B586B004AF78607B6800937D
:104BD00048F68463C2F2000301934FF0000302938E
:104BE0004FF00003039344F60D40C0F6000045F279
:104BF0002461C0F600014FF0C8024FF00003FDF73A
:104C000057F907F10807BD4680BD00BF80B584B0E5
:104C100000AF7860FDF798FD0346FB604FF48050CD
:104C2000C4F600004FF00901FFF7AAF940F20C03A7
:104C3000C2F200031B6807F10C0210461946FDF78B
:104C400017FAEBE780B582B000AF78603960FFF704
:104C500069F84FF00100FFF7B5FF4FF00000FEF7D5
:104C600005FF4FF0020000F0FFF94FF0040000F0E4
:104C700021F84FF0030000F0AFFBFDF755FCFEE715
:104C800080B400AFBD4680BC704700BF80B500AFA8
:104C9000FCF79EFBFEE700BF80B400AFBD4680BCC2
:104CA000704700BF80B582B000AF78603960FCF714
:104CB0008FFBFEE780B586B004AF78604FF001004F
:104CC000FCF7DAFC024648F6F853C2F200031A6019
:104CD0007B68009348F68063C2F2000301934FF0B3
:104CE000000302934FF00003039344F61150C0F603
:104CF000000045F23061C0F600014FF0CA024FF0EB
:104D00000003FDF7D5F807F10807BD4680BD00BFD9
:104D100080B584B000AF7860FDF716FD0346FB60F8
:104D200048F6F853C2F200031B6818464FF0000122
:104D30004FF032024FF00003FCF748FE0346012B10
:104D40001DD1FDF735FC48F64C60C2F20000FFF7BC
:104D50000FFE0F48FFF76EFE0E48FFF7D9FEFDF776
:104D600039FC48F6F853C2F200031B6818464FF0AE
:104D700000014FF000024FF00003FCF7D3FC07F1F5
:104D80000C0318464FF03201FDF772F9C8E700BF77
:104D9000588E0020648E00200649074A074B9A422D
:104DA000BEBF51F8040B42F8040BF8E704488047F3
:104DB0000448004764560008000000207C000020E2
:104DC00029510008DD0100082A492B4A002301E08F
:104DD00041F8043B9142FBD3FFF734FFFEE7FEE7C7
:104DE000FEE7FEE7FEE7FEE7FEE7FEE7FEE7FEE79B
:104DF000FEE7FEE7FEE7FEE7FEE7FEE7FEE7FEE78B
:104E0000FEE7FEE7FEE7FEE7FEE7FEE7FEE7FEE77A
:104E1000FEE7FEE7FEE7FEE7FEE7FEE7FEE7FEE76A
:104E2000FEE7FEE7FEE7FEE7FEE7FEE7FEE7FEE75A
:104E3000FEE7FEE7FEE7FEE7FEE7FEE7FEE7FEE74A
:104E4000FEE7FEE7FEE7FEE7FEE7FEE7FEE7FEE73A
:104E5000FEE7FEE7FEE7FEE7FEE7FEE7FEE7FEE72A
:104E6000FEE7FEE7FEE7FEE7FEE7FEE7FEE7FEE71A
:104E7000FEE7FEE77C000020A98E002080B400AF92
:104E8000BD4680BC704700BF80B400AFFEE700BFE6
:104E900080B400AFFEE700BF80B400AFFEE700BF04
:104EA00080B400AFFEE700BF80B400AFBD4680BC59
:104EB000704700BF80B582B000AF4FF000037B6049
:104EC0004FF00000FBF7C4F948F6EC53C2F20003C0
:104ED0001A6807F1040310464FF000011A464FF01C
:104EE0000003FCF7F5FC7B68002B06D04EF604535C
:104EF000CEF200034FF080521A6007F10807BD465A
:104F000080BD00BF80B582B000AF4FF000033B60B2
:104F10004FF46053C4F20103DB6903F02003002B5C
:104F20002AD04FF46053C4F201039B8C9BB2FB71F7
:104F300048F69463C2F200031B7DDBB2142B06D942
:104F400048F69463C2F200034FF000021A7548F667
:104F50009463C2F200031B7DDAB2114648F69463F3
:104F6000C2F20003F879585402F10103DAB248F6AC
:104F70009463C2F200031A754FF46053C4F2010344
:104F8000DB6903F08003002B3CD048F69463C2F247
:104F900000031B7DDAB248F60063C2F200031B78FF
:104FA0009A4213D8FFF724F848F60063C2F20003D0
:104FB0004FF000021A7048F69460C2F200004FF001
:104FC00000014FF0150200F0F8FA1BE048F600630C
:104FD000C2F200031B781A4648F69463C2F200033B
:104FE0009B5CDBB21846FFF721F848F60063C2F27B
:104FF00000031B7803F10103DAB248F60063C2F242
:1050000000031A704FF46053C4F20103DB6903F428
:105010000063002B19D04FF46053C4F201034FF426
:105020006052C4F20102126A42F400621A6248F647
:10503000F453C2F200031A683B4610464FF00001D9
:105040001A464FF00003FCF743FC3B68002B06D0E8
:105050004EF60453CEF200034FF080521A6007F16F
:105060000807BD4680BD00BF80B586B004AF78603C
:1050700048F6F053C2F200031B68002B0DD14FF02D
:1050800001004FF000014FF00302FCF7ADFA0246B9
:1050900048F6F053C2F200031A607B6800934FF0A9
:1050A000000301934FF0000302934FF000030393BA
:1050B00045F2D500C0F6000045F23861C0F60001A7
:1050C0004FF0C8024FF00003FCF7F2FE07F10807AB
:1050D000BD4680BD80B584B000AF786048F6F0531F
:1050E000C2F200031B6818464FF000014FF0FF3278
:1050F0004FF00003FCF76AFC4FF00003FB600FE089
:105100004FF48050C4F600004FF00D01FEF738FF59
:105110004FF07D00FDF72EF8FB6803F10103FB6003
:10512000FB68032BECD9D9E780B500AF4FF46D4392
:10513000CEF200034FF46D42CEF20002D2F8882086
:1051400042F47002C3F888204FF48053C4F2020383
:105150004FF48052C4F20202126842F001021A6057
:105160004FF48052C4F202024FF48053C4F202039F
:1051700059684CF20C03CFF67F030B4053604FF499
:105180008053C4F202034FF48052C4F20202126848
:1051900022F0847222F480321A604FF48053C4F2F9
:1051A00002034FF48052C4F20202126822F48022F9
:1051B0001A604FF48053C4F202034FF48052C4F2D9
:1051C0000202526822F4FE025A604FF48053C4F285
:1051D00002034FF48052C4F20202D26A22F00F029C
:1051E000DA624FF48052C4F202024FF48053C4F2E8
:1051F0000203196B4FF6CC43CFF600730B401363D9
:105200004FF48053C4F202034FF000029A6000F0A2
:1052100009F84FF46D43CEF200034FF000629A603C
:1052200080BD00BF80B483B000AF4FF000037B604F
:105230004FF000033B604FF48053C4F202034FF47D
:105240008052C4F20202126842F4A0221A604FF4A3
:105250008053C4F202031B6803F400333B607B6895
:1052600003F101037B603B68002B03D17B68B3F53E
:10527000A06FECD14FF48053C4F202031B6803F417
:105280000033002B03D04FF001033B6002E04FF0EE
:1052900000033B603B68012B77D14FF40053C4F20D
:1052A00002034FF012021A604FF48053C4F202035B
:1052B0004FF48052C4F2020252685A604FF4805395
:1052C000C4F202034FF48052C4F2020252685A60E0
:1052D0004FF48053C4F202034FF48052C4F202022E
:1052E000526842F480625A604FF48053C4F2020361
:1052F0004FF48052C4F20202526822F47C125A60C7
:105300004FF48053C4F202034FF48052C4F20202FD
:10531000526842F4E8125A604FF48053C4F2020318
:105320004FF48052C4F20202126842F080721A6096
:1053300000BF4FF48053C4F202031B6803F00073F4
:10534000002BF6D04FF48053C4F202034FF4805286
:10535000C4F20202526822F003025A604FF48053F2
:10536000C4F202034FF48052C4F20202526842F0C7
:1053700002025A6000BF4FF48053C4F202035B681C
:1053800003F00C03082BF6D101E000BFFDE707F1A5
:105390000C07BD4680BC704780B582B000AF0346A5
:1053A000FB71FB794FEA830248F64C63C2F20003BB
:1053B000D318084819464FF0040200F0F5F848F6F3
:1053C0009463C2F200034FF006021A7507F1080752
:1053D000BD4680BD968E002080B586B004AF786053
:1053E00048F69460C2F200004FF000014FF0150241
:1053F00000F0E3F84FF001004FF000014FF003021E
:10540000FCF7F2F8024648F6F453C2F200031A60C1
:105410007B68009348F68C63C2F2000301934FF05F
:10542000000302934FF00003039345F25140C0F68E
:10543000000045F24461C0F600014FF0CA024FF08F
:105440000003FCF735FD07F10807BD4680BD00BF2E
:1054500080B584B000AF786048F6F453C2F2000320
:105460001B6818464FF000014FF000024FF0000398
:10547000FCF7ACFA48F6F453C2F200031B68184676
:105480004FF000014FF0FF324FF00003FCF79EFA9F
:1054900048F69463C2F200031B78DBB2012B0BD0F9
:1054A00048F69460C2F200004FF000014FF0150280
:1054B00000F083F800BFDDE748F69463C2F2000312
:1054C0005B78DBB2A3F14203032B20D801A252F890
:1054D00023F000BFE55400080F5500080F550008E1
:1054E000FB54000848F69463C2F200039B78FB73F8
:1054F000FB7B1846FFF750FF09E048F69463C2F2C1
:1055000000039B78DBB21846FFF746FF00BFFEF7AB
:1055100051FDAFE708B5074B044613B10021AFF3C7
:105520000080054B1868836A03B19847204600F055
:105530004DF800BF000000005456000870B50E4B37
:105540000E4DED1AAD1000241E4603E056F824203F
:1055500090470134AC42F9D100F03AF8084D094BBC
:10556000ED1AAD1000241E4603E056F824209047A3
:105570000134AC42F9D170BD7400002074000020E9
:10558000780000207400002030B5002308E0C55CDE
:105590000133CC1814F8014CA54201D0281B30BDB2
:1055A0009342F4D1002030BD10B5002302E0CC5C62
:1055B000C45401339342FAD110BD8218034601E06E
:1055C00003F8011B9342FBD170470000FEE700BFC8
:1055D000F8B500BFF8BC08BC9E467047F8B500BFE0
:1055E000F8BC08BC9E46704708000000F0E300E0ED
:1055F00049444C4500000000A5A5A5A5A5A5A5A565
:10560000A5A5A5A5A5A5A5A5A5A5A5A5546D72208B
:1056100053766300546D725100000000427574743B
:105620006F6E00004C454420426C696E6B000000B8
:1056300053656E736F720000537461747573204C00
:105640004544000055534152542052780000000058
:0C565000430000001400002000000000D7
:08565C0080ABFF7F010000009C
:10566400F88B0000AAAAAAAAFFFFFFFF4D010000C1
:1056740000A24A0400000000000000000000000036
:105684000000000000000000000000000000000016
:105694000000000050560008000000000000000058
:1056A40000000000000000000000000000000000F6
:1056B40000000000000000000000000000000000E6
:1056C40000000000000000000000000000000000D6
:0C56D40000000000AD0100088901000882
:0400000508000000EF
:00000001FF
